{
  "address": "0xE045283de32a2b3703767A02bD1723322ef96186",
  "abi": [
    {
      "inputs": [
        {
          "internalType": "address",
          "name": "market",
          "type": "address"
        }
      ],
      "name": "DisabledMarket",
      "type": "error"
    },
    {
      "inputs": [],
      "name": "EmptyMarket",
      "type": "error"
    },
    {
      "inputs": [
        {
          "internalType": "uint256",
          "name": "x",
          "type": "uint256"
        }
      ],
      "name": "PRBMathUD60x18__Exp2InputTooBig",
      "type": "error"
    },
    {
      "inputs": [
        {
          "internalType": "uint256",
          "name": "x",
          "type": "uint256"
        }
      ],
      "name": "PRBMathUD60x18__LogInputTooSmall",
      "type": "error"
    },
    {
      "inputs": [
        {
          "internalType": "uint256",
          "name": "prod1",
          "type": "uint256"
        }
      ],
      "name": "PRBMath__MulDivFixedPointOverflow",
      "type": "error"
    },
    {
      "inputs": [],
      "name": "UnableToGetBorrowingFactorEmptyPoolUsd",
      "type": "error"
    },
    {
      "inputs": [
        {
          "internalType": "contract DataStore",
          "name": "dataStore",
          "type": "address"
        },
        {
          "internalType": "address",
          "name": "account",
          "type": "address"
        },
        {
          "internalType": "uint256",
          "name": "start",
          "type": "uint256"
        },
        {
          "internalType": "uint256",
          "name": "end",
          "type": "uint256"
        }
      ],
      "name": "getAccountOrders",
      "outputs": [
        {
          "components": [
            {
              "components": [
                {
                  "internalType": "address",
                  "name": "account",
                  "type": "address"
                },
                {
                  "internalType": "address",
                  "name": "receiver",
                  "type": "address"
                },
                {
                  "internalType": "address",
                  "name": "callbackContract",
                  "type": "address"
                },
                {
                  "internalType": "address",
                  "name": "uiFeeReceiver",
                  "type": "address"
                },
                {
                  "internalType": "address",
                  "name": "market",
                  "type": "address"
                },
                {
                  "internalType": "address",
                  "name": "initialCollateralToken",
                  "type": "address"
                },
                {
                  "internalType": "address[]",
                  "name": "swapPath",
                  "type": "address[]"
                }
              ],
              "internalType": "struct Order.Addresses",
              "name": "addresses",
              "type": "tuple"
            },
            {
              "components": [
                {
                  "internalType": "enum Order.OrderType",
                  "name": "orderType",
                  "type": "uint8"
                },
                {
                  "internalType": "enum Order.DecreasePositionSwapType",
                  "name": "decreasePositionSwapType",
                  "type": "uint8"
                },
                {
                  "internalType": "uint256",
                  "name": "sizeDeltaUsd",
                  "type": "uint256"
                },
                {
                  "internalType": "uint256",
                  "name": "initialCollateralDeltaAmount",
                  "type": "uint256"
                },
                {
                  "internalType": "uint256",
                  "name": "triggerPrice",
                  "type": "uint256"
                },
                {
                  "internalType": "uint256",
                  "name": "acceptablePrice",
                  "type": "uint256"
                },
                {
                  "internalType": "uint256",
                  "name": "executionFee",
                  "type": "uint256"
                },
                {
                  "internalType": "uint256",
                  "name": "callbackGasLimit",
                  "type": "uint256"
                },
                {
                  "internalType": "uint256",
                  "name": "minOutputAmount",
                  "type": "uint256"
                },
                {
                  "internalType": "uint256",
                  "name": "updatedAtBlock",
                  "type": "uint256"
                }
              ],
              "internalType": "struct Order.Numbers",
              "name": "numbers",
              "type": "tuple"
            },
            {
              "components": [
                {
                  "internalType": "bool",
                  "name": "isLong",
                  "type": "bool"
                },
                {
                  "internalType": "bool",
                  "name": "shouldUnwrapNativeToken",
                  "type": "bool"
                },
                {
                  "internalType": "bool",
                  "name": "isFrozen",
                  "type": "bool"
                }
              ],
              "internalType": "struct Order.Flags",
              "name": "flags",
              "type": "tuple"
            }
          ],
          "internalType": "struct Order.Props[]",
          "name": "",
          "type": "tuple[]"
        }
      ],
      "stateMutability": "view",
      "type": "function"
    },
    {
      "inputs": [
        {
          "internalType": "contract DataStore",
          "name": "dataStore",
          "type": "address"
        },
        {
          "internalType": "contract IReferralStorage",
          "name": "referralStorage",
          "type": "address"
        },
        {
          "internalType": "bytes32[]",
          "name": "positionKeys",
          "type": "bytes32[]"
        },
        {
          "components": [
            {
              "components": [
                {
                  "internalType": "uint256",
                  "name": "min",
                  "type": "uint256"
                },
                {
                  "internalType": "uint256",
                  "name": "max",
                  "type": "uint256"
                }
              ],
              "internalType": "struct Price.Props",
              "name": "indexTokenPrice",
              "type": "tuple"
            },
            {
              "components": [
                {
                  "internalType": "uint256",
                  "name": "min",
                  "type": "uint256"
                },
                {
                  "internalType": "uint256",
                  "name": "max",
                  "type": "uint256"
                }
              ],
              "internalType": "struct Price.Props",
              "name": "longTokenPrice",
              "type": "tuple"
            },
            {
              "components": [
                {
                  "internalType": "uint256",
                  "name": "min",
                  "type": "uint256"
                },
                {
                  "internalType": "uint256",
                  "name": "max",
                  "type": "uint256"
                }
              ],
              "internalType": "struct Price.Props",
              "name": "shortTokenPrice",
              "type": "tuple"
            }
          ],
          "internalType": "struct MarketUtils.MarketPrices[]",
          "name": "prices",
          "type": "tuple[]"
        },
        {
          "internalType": "address",
          "name": "uiFeeReceiver",
          "type": "address"
        }
      ],
      "name": "getAccountPositionInfoList",
      "outputs": [
        {
          "components": [
            {
              "components": [
                {
                  "components": [
                    {
                      "internalType": "address",
                      "name": "account",
                      "type": "address"
                    },
                    {
                      "internalType": "address",
                      "name": "market",
                      "type": "address"
                    },
                    {
                      "internalType": "address",
                      "name": "collateralToken",
                      "type": "address"
                    }
                  ],
                  "internalType": "struct Position.Addresses",
                  "name": "addresses",
                  "type": "tuple"
                },
                {
                  "components": [
                    {
                      "internalType": "uint256",
                      "name": "sizeInUsd",
                      "type": "uint256"
                    },
                    {
                      "internalType": "uint256",
                      "name": "sizeInTokens",
                      "type": "uint256"
                    },
                    {
                      "internalType": "uint256",
                      "name": "collateralAmount",
                      "type": "uint256"
                    },
                    {
                      "internalType": "uint256",
                      "name": "borrowingFactor",
                      "type": "uint256"
                    },
                    {
                      "internalType": "uint256",
                      "name": "fundingFeeAmountPerSize",
                      "type": "uint256"
                    },
                    {
                      "internalType": "uint256",
                      "name": "longTokenClaimableFundingAmountPerSize",
                      "type": "uint256"
                    },
                    {
                      "internalType": "uint256",
                      "name": "shortTokenClaimableFundingAmountPerSize",
                      "type": "uint256"
                    },
                    {
                      "internalType": "uint256",
                      "name": "increasedAtBlock",
                      "type": "uint256"
                    },
                    {
                      "internalType": "uint256",
                      "name": "decreasedAtBlock",
                      "type": "uint256"
                    }
                  ],
                  "internalType": "struct Position.Numbers",
                  "name": "numbers",
                  "type": "tuple"
                },
                {
                  "components": [
                    {
                      "internalType": "bool",
                      "name": "isLong",
                      "type": "bool"
                    }
                  ],
                  "internalType": "struct Position.Flags",
                  "name": "flags",
                  "type": "tuple"
                }
              ],
              "internalType": "struct Position.Props",
              "name": "position",
              "type": "tuple"
            },
            {
              "components": [
                {
                  "components": [
                    {
                      "internalType": "bytes32",
                      "name": "referralCode",
                      "type": "bytes32"
                    },
                    {
                      "internalType": "address",
                      "name": "affiliate",
                      "type": "address"
                    },
                    {
                      "internalType": "address",
                      "name": "trader",
                      "type": "address"
                    },
                    {
                      "internalType": "uint256",
                      "name": "totalRebateFactor",
                      "type": "uint256"
                    },
                    {
                      "internalType": "uint256",
                      "name": "traderDiscountFactor",
                      "type": "uint256"
                    },
                    {
                      "internalType": "uint256",
                      "name": "totalRebateAmount",
                      "type": "uint256"
                    },
                    {
                      "internalType": "uint256",
                      "name": "traderDiscountAmount",
                      "type": "uint256"
                    },
                    {
                      "internalType": "uint256",
                      "name": "affiliateRewardAmount",
                      "type": "uint256"
                    }
                  ],
                  "internalType": "struct PositionPricingUtils.PositionReferralFees",
                  "name": "referral",
                  "type": "tuple"
                },
                {
                  "components": [
                    {
                      "internalType": "uint256",
                      "name": "fundingFeeAmount",
                      "type": "uint256"
                    },
                    {
                      "internalType": "uint256",
                      "name": "claimableLongTokenAmount",
                      "type": "uint256"
                    },
                    {
                      "internalType": "uint256",
                      "name": "claimableShortTokenAmount",
                      "type": "uint256"
                    },
                    {
                      "internalType": "uint256",
                      "name": "latestFundingFeeAmountPerSize",
                      "type": "uint256"
                    },
                    {
                      "internalType": "uint256",
                      "name": "latestLongTokenClaimableFundingAmountPerSize",
                      "type": "uint256"
                    },
                    {
                      "internalType": "uint256",
                      "name": "latestShortTokenClaimableFundingAmountPerSize",
                      "type": "uint256"
                    }
                  ],
                  "internalType": "struct PositionPricingUtils.PositionFundingFees",
                  "name": "funding",
                  "type": "tuple"
                },
                {
                  "components": [
                    {
                      "internalType": "uint256",
                      "name": "borrowingFeeUsd",
                      "type": "uint256"
                    },
                    {
                      "internalType": "uint256",
                      "name": "borrowingFeeAmount",
                      "type": "uint256"
                    },
                    {
                      "internalType": "uint256",
                      "name": "borrowingFeeReceiverFactor",
                      "type": "uint256"
                    },
                    {
                      "internalType": "uint256",
                      "name": "borrowingFeeAmountForFeeReceiver",
                      "type": "uint256"
                    }
                  ],
                  "internalType": "struct PositionPricingUtils.PositionBorrowingFees",
                  "name": "borrowing",
                  "type": "tuple"
                },
                {
                  "components": [
                    {
                      "internalType": "address",
                      "name": "uiFeeReceiver",
                      "type": "address"
                    },
                    {
                      "internalType": "uint256",
                      "name": "uiFeeReceiverFactor",
                      "type": "uint256"
                    },
                    {
                      "internalType": "uint256",
                      "name": "uiFeeAmount",
                      "type": "uint256"
                    }
                  ],
                  "internalType": "struct PositionPricingUtils.PositionUiFees",
                  "name": "ui",
                  "type": "tuple"
                },
                {
                  "components": [
                    {
                      "internalType": "uint256",
                      "name": "min",
                      "type": "uint256"
                    },
                    {
                      "internalType": "uint256",
                      "name": "max",
                      "type": "uint256"
                    }
                  ],
                  "internalType": "struct Price.Props",
                  "name": "collateralTokenPrice",
                  "type": "tuple"
                },
                {
                  "internalType": "uint256",
                  "name": "positionFeeFactor",
                  "type": "uint256"
                },
                {
                  "internalType": "uint256",
                  "name": "protocolFeeAmount",
                  "type": "uint256"
                },
                {
                  "internalType": "uint256",
                  "name": "positionFeeReceiverFactor",
                  "type": "uint256"
                },
                {
                  "internalType": "uint256",
                  "name": "feeReceiverAmount",
                  "type": "uint256"
                },
                {
                  "internalType": "uint256",
                  "name": "feeAmountForPool",
                  "type": "uint256"
                },
                {
                  "internalType": "uint256",
                  "name": "positionFeeAmountForPool",
                  "type": "uint256"
                },
                {
                  "internalType": "uint256",
                  "name": "positionFeeAmount",
                  "type": "uint256"
                },
                {
                  "internalType": "uint256",
                  "name": "totalCostAmountExcludingFunding",
                  "type": "uint256"
                },
                {
                  "internalType": "uint256",
                  "name": "totalCostAmount",
                  "type": "uint256"
                }
              ],
              "internalType": "struct PositionPricingUtils.PositionFees",
              "name": "fees",
              "type": "tuple"
            },
            {
              "components": [
                {
                  "internalType": "int256",
                  "name": "priceImpactUsd",
                  "type": "int256"
                },
                {
                  "internalType": "uint256",
                  "name": "priceImpactDiffUsd",
                  "type": "uint256"
                },
                {
                  "internalType": "uint256",
                  "name": "executionPrice",
                  "type": "uint256"
                }
              ],
              "internalType": "struct ReaderPricingUtils.ExecutionPriceResult",
              "name": "executionPriceResult",
              "type": "tuple"
            },
            {
              "internalType": "int256",
              "name": "basePnlUsd",
              "type": "int256"
            },
            {
              "internalType": "int256",
              "name": "uncappedBasePnlUsd",
              "type": "int256"
            },
            {
              "internalType": "int256",
              "name": "pnlAfterPriceImpactUsd",
              "type": "int256"
            }
          ],
          "internalType": "struct ReaderUtils.PositionInfo[]",
          "name": "",
          "type": "tuple[]"
        }
      ],
      "stateMutability": "view",
      "type": "function"
    },
    {
      "inputs": [
        {
          "internalType": "contract DataStore",
          "name": "dataStore",
          "type": "address"
        },
        {
          "internalType": "address",
          "name": "account",
          "type": "address"
        },
        {
          "internalType": "uint256",
          "name": "start",
          "type": "uint256"
        },
        {
          "internalType": "uint256",
          "name": "end",
          "type": "uint256"
        }
      ],
      "name": "getAccountPositions",
      "outputs": [
        {
          "components": [
            {
              "components": [
                {
                  "internalType": "address",
                  "name": "account",
                  "type": "address"
                },
                {
                  "internalType": "address",
                  "name": "market",
                  "type": "address"
                },
                {
                  "internalType": "address",
                  "name": "collateralToken",
                  "type": "address"
                }
              ],
              "internalType": "struct Position.Addresses",
              "name": "addresses",
              "type": "tuple"
            },
            {
              "components": [
                {
                  "internalType": "uint256",
                  "name": "sizeInUsd",
                  "type": "uint256"
                },
                {
                  "internalType": "uint256",
                  "name": "sizeInTokens",
                  "type": "uint256"
                },
                {
                  "internalType": "uint256",
                  "name": "collateralAmount",
                  "type": "uint256"
                },
                {
                  "internalType": "uint256",
                  "name": "borrowingFactor",
                  "type": "uint256"
                },
                {
                  "internalType": "uint256",
                  "name": "fundingFeeAmountPerSize",
                  "type": "uint256"
                },
                {
                  "internalType": "uint256",
                  "name": "longTokenClaimableFundingAmountPerSize",
                  "type": "uint256"
                },
                {
                  "internalType": "uint256",
                  "name": "shortTokenClaimableFundingAmountPerSize",
                  "type": "uint256"
                },
                {
                  "internalType": "uint256",
                  "name": "increasedAtBlock",
                  "type": "uint256"
                },
                {
                  "internalType": "uint256",
                  "name": "decreasedAtBlock",
                  "type": "uint256"
                }
              ],
              "internalType": "struct Position.Numbers",
              "name": "numbers",
              "type": "tuple"
            },
            {
              "components": [
                {
                  "internalType": "bool",
                  "name": "isLong",
                  "type": "bool"
                }
              ],
              "internalType": "struct Position.Flags",
              "name": "flags",
              "type": "tuple"
            }
          ],
          "internalType": "struct Position.Props[]",
          "name": "",
          "type": "tuple[]"
        }
      ],
      "stateMutability": "view",
      "type": "function"
    },
    {
      "inputs": [
        {
          "internalType": "contract DataStore",
          "name": "dataStore",
          "type": "address"
        },
        {
          "internalType": "address",
          "name": "market",
          "type": "address"
        },
        {
          "internalType": "bool",
          "name": "isLong",
          "type": "bool"
        },
        {
          "components": [
            {
              "components": [
                {
                  "internalType": "uint256",
                  "name": "min",
                  "type": "uint256"
                },
                {
                  "internalType": "uint256",
                  "name": "max",
                  "type": "uint256"
                }
              ],
              "internalType": "struct Price.Props",
              "name": "indexTokenPrice",
              "type": "tuple"
            },
            {
              "components": [
                {
                  "internalType": "uint256",
                  "name": "min",
                  "type": "uint256"
                },
                {
                  "internalType": "uint256",
                  "name": "max",
                  "type": "uint256"
                }
              ],
              "internalType": "struct Price.Props",
              "name": "longTokenPrice",
              "type": "tuple"
            },
            {
              "components": [
                {
                  "internalType": "uint256",
                  "name": "min",
                  "type": "uint256"
                },
                {
                  "internalType": "uint256",
                  "name": "max",
                  "type": "uint256"
                }
              ],
              "internalType": "struct Price.Props",
              "name": "shortTokenPrice",
              "type": "tuple"
            }
          ],
          "internalType": "struct MarketUtils.MarketPrices",
          "name": "prices",
          "type": "tuple"
        }
      ],
      "name": "getAdlState",
      "outputs": [
        {
          "internalType": "uint256",
          "name": "",
          "type": "uint256"
        },
        {
          "internalType": "bool",
          "name": "",
          "type": "bool"
        },
        {
          "internalType": "int256",
          "name": "",
          "type": "int256"
        },
        {
          "internalType": "uint256",
          "name": "",
          "type": "uint256"
        }
      ],
      "stateMutability": "view",
      "type": "function"
    },
    {
      "inputs": [
        {
          "internalType": "contract DataStore",
          "name": "dataStore",
          "type": "address"
        },
        {
          "internalType": "bytes32",
          "name": "key",
          "type": "bytes32"
        }
      ],
      "name": "getDeposit",
      "outputs": [
        {
          "components": [
            {
              "components": [
                {
                  "internalType": "address",
                  "name": "account",
                  "type": "address"
                },
                {
                  "internalType": "address",
                  "name": "receiver",
                  "type": "address"
                },
                {
                  "internalType": "address",
                  "name": "callbackContract",
                  "type": "address"
                },
                {
                  "internalType": "address",
                  "name": "uiFeeReceiver",
                  "type": "address"
                },
                {
                  "internalType": "address",
                  "name": "market",
                  "type": "address"
                },
                {
                  "internalType": "address",
                  "name": "initialLongToken",
                  "type": "address"
                },
                {
                  "internalType": "address",
                  "name": "initialShortToken",
                  "type": "address"
                },
                {
                  "internalType": "address[]",
                  "name": "longTokenSwapPath",
                  "type": "address[]"
                },
                {
                  "internalType": "address[]",
                  "name": "shortTokenSwapPath",
                  "type": "address[]"
                }
              ],
              "internalType": "struct Deposit.Addresses",
              "name": "addresses",
              "type": "tuple"
            },
            {
              "components": [
                {
                  "internalType": "uint256",
                  "name": "initialLongTokenAmount",
                  "type": "uint256"
                },
                {
                  "internalType": "uint256",
                  "name": "initialShortTokenAmount",
                  "type": "uint256"
                },
                {
                  "internalType": "uint256",
                  "name": "minMarketTokens",
                  "type": "uint256"
                },
                {
                  "internalType": "uint256",
                  "name": "updatedAtBlock",
                  "type": "uint256"
                },
                {
                  "internalType": "uint256",
                  "name": "executionFee",
                  "type": "uint256"
                },
                {
                  "internalType": "uint256",
                  "name": "callbackGasLimit",
                  "type": "uint256"
                }
              ],
              "internalType": "struct Deposit.Numbers",
              "name": "numbers",
              "type": "tuple"
            },
            {
              "components": [
                {
                  "internalType": "bool",
                  "name": "shouldUnwrapNativeToken",
                  "type": "bool"
                }
              ],
              "internalType": "struct Deposit.Flags",
              "name": "flags",
              "type": "tuple"
            }
          ],
          "internalType": "struct Deposit.Props",
          "name": "",
          "type": "tuple"
        }
      ],
      "stateMutability": "view",
      "type": "function"
    },
    {
      "inputs": [
        {
          "internalType": "contract DataStore",
          "name": "dataStore",
          "type": "address"
        },
        {
          "internalType": "address",
          "name": "marketKey",
          "type": "address"
        },
        {
          "components": [
            {
              "internalType": "uint256",
              "name": "min",
              "type": "uint256"
            },
            {
              "internalType": "uint256",
              "name": "max",
              "type": "uint256"
            }
          ],
          "internalType": "struct Price.Props",
          "name": "indexTokenPrice",
          "type": "tuple"
        },
        {
          "internalType": "uint256",
          "name": "positionSizeInUsd",
          "type": "uint256"
        },
        {
          "internalType": "uint256",
          "name": "positionSizeInTokens",
          "type": "uint256"
        },
        {
          "internalType": "int256",
          "name": "sizeDeltaUsd",
          "type": "int256"
        },
        {
          "internalType": "bool",
          "name": "isLong",
          "type": "bool"
        }
      ],
      "name": "getExecutionPrice",
      "outputs": [
        {
          "components": [
            {
              "internalType": "int256",
              "name": "priceImpactUsd",
              "type": "int256"
            },
            {
              "internalType": "uint256",
              "name": "priceImpactDiffUsd",
              "type": "uint256"
            },
            {
              "internalType": "uint256",
              "name": "executionPrice",
              "type": "uint256"
            }
          ],
          "internalType": "struct ReaderPricingUtils.ExecutionPriceResult",
          "name": "",
          "type": "tuple"
        }
      ],
      "stateMutability": "view",
      "type": "function"
    },
    {
      "inputs": [
        {
          "internalType": "contract DataStore",
          "name": "dataStore",
          "type": "address"
        },
        {
          "internalType": "address",
          "name": "key",
          "type": "address"
        }
      ],
      "name": "getMarket",
      "outputs": [
        {
          "components": [
            {
              "internalType": "address",
              "name": "marketToken",
              "type": "address"
            },
            {
              "internalType": "address",
              "name": "indexToken",
              "type": "address"
            },
            {
              "internalType": "address",
              "name": "longToken",
              "type": "address"
            },
            {
              "internalType": "address",
              "name": "shortToken",
              "type": "address"
            }
          ],
          "internalType": "struct Market.Props",
          "name": "",
          "type": "tuple"
        }
      ],
      "stateMutability": "view",
      "type": "function"
    },
    {
      "inputs": [
        {
          "internalType": "contract DataStore",
          "name": "dataStore",
          "type": "address"
        },
        {
          "internalType": "bytes32",
          "name": "salt",
          "type": "bytes32"
        }
      ],
      "name": "getMarketBySalt",
      "outputs": [
        {
          "components": [
            {
              "internalType": "address",
              "name": "marketToken",
              "type": "address"
            },
            {
              "internalType": "address",
              "name": "indexToken",
              "type": "address"
            },
            {
              "internalType": "address",
              "name": "longToken",
              "type": "address"
            },
            {
              "internalType": "address",
              "name": "shortToken",
              "type": "address"
            }
          ],
          "internalType": "struct Market.Props",
          "name": "",
          "type": "tuple"
        }
      ],
      "stateMutability": "view",
      "type": "function"
    },
    {
      "inputs": [
        {
          "internalType": "contract DataStore",
          "name": "dataStore",
          "type": "address"
        },
        {
          "components": [
            {
              "components": [
                {
                  "internalType": "uint256",
                  "name": "min",
                  "type": "uint256"
                },
                {
                  "internalType": "uint256",
                  "name": "max",
                  "type": "uint256"
                }
              ],
              "internalType": "struct Price.Props",
              "name": "indexTokenPrice",
              "type": "tuple"
            },
            {
              "components": [
                {
                  "internalType": "uint256",
                  "name": "min",
                  "type": "uint256"
                },
                {
                  "internalType": "uint256",
                  "name": "max",
                  "type": "uint256"
                }
              ],
              "internalType": "struct Price.Props",
              "name": "longTokenPrice",
              "type": "tuple"
            },
            {
              "components": [
                {
                  "internalType": "uint256",
                  "name": "min",
                  "type": "uint256"
                },
                {
                  "internalType": "uint256",
                  "name": "max",
                  "type": "uint256"
                }
              ],
              "internalType": "struct Price.Props",
              "name": "shortTokenPrice",
              "type": "tuple"
            }
          ],
          "internalType": "struct MarketUtils.MarketPrices",
          "name": "prices",
          "type": "tuple"
        },
        {
          "internalType": "address",
          "name": "marketKey",
          "type": "address"
        }
      ],
      "name": "getMarketInfo",
      "outputs": [
        {
          "components": [
            {
              "components": [
                {
                  "internalType": "address",
                  "name": "marketToken",
                  "type": "address"
                },
                {
                  "internalType": "address",
                  "name": "indexToken",
                  "type": "address"
                },
                {
                  "internalType": "address",
                  "name": "longToken",
                  "type": "address"
                },
                {
                  "internalType": "address",
                  "name": "shortToken",
                  "type": "address"
                }
              ],
              "internalType": "struct Market.Props",
              "name": "market",
              "type": "tuple"
            },
            {
              "internalType": "uint256",
              "name": "borrowingFactorPerSecondForLongs",
              "type": "uint256"
            },
            {
              "internalType": "uint256",
              "name": "borrowingFactorPerSecondForShorts",
              "type": "uint256"
            },
            {
              "components": [
                {
                  "components": [
                    {
                      "components": [
                        {
                          "internalType": "uint256",
                          "name": "longToken",
                          "type": "uint256"
                        },
                        {
                          "internalType": "uint256",
                          "name": "shortToken",
                          "type": "uint256"
                        }
                      ],
                      "internalType": "struct MarketUtils.CollateralType",
                      "name": "long",
                      "type": "tuple"
                    },
                    {
                      "components": [
                        {
                          "internalType": "uint256",
                          "name": "longToken",
                          "type": "uint256"
                        },
                        {
                          "internalType": "uint256",
                          "name": "shortToken",
                          "type": "uint256"
                        }
                      ],
                      "internalType": "struct MarketUtils.CollateralType",
                      "name": "short",
                      "type": "tuple"
                    }
                  ],
                  "internalType": "struct MarketUtils.PositionType",
                  "name": "fundingFeeAmountPerSize",
                  "type": "tuple"
                },
                {
                  "components": [
                    {
                      "components": [
                        {
                          "internalType": "uint256",
                          "name": "longToken",
                          "type": "uint256"
                        },
                        {
                          "internalType": "uint256",
                          "name": "shortToken",
                          "type": "uint256"
                        }
                      ],
                      "internalType": "struct MarketUtils.CollateralType",
                      "name": "long",
                      "type": "tuple"
                    },
                    {
                      "components": [
                        {
                          "internalType": "uint256",
                          "name": "longToken",
                          "type": "uint256"
                        },
                        {
                          "internalType": "uint256",
                          "name": "shortToken",
                          "type": "uint256"
                        }
                      ],
                      "internalType": "struct MarketUtils.CollateralType",
                      "name": "short",
                      "type": "tuple"
                    }
                  ],
                  "internalType": "struct MarketUtils.PositionType",
                  "name": "claimableFundingAmountPerSize",
                  "type": "tuple"
                }
              ],
              "internalType": "struct ReaderUtils.BaseFundingValues",
              "name": "baseFunding",
              "type": "tuple"
            },
            {
              "components": [
                {
                  "internalType": "bool",
                  "name": "longsPayShorts",
                  "type": "bool"
                },
                {
                  "internalType": "uint256",
                  "name": "fundingFactorPerSecond",
                  "type": "uint256"
                },
                {
                  "components": [
                    {
                      "components": [
                        {
                          "internalType": "uint256",
                          "name": "longToken",
                          "type": "uint256"
                        },
                        {
                          "internalType": "uint256",
                          "name": "shortToken",
                          "type": "uint256"
                        }
                      ],
                      "internalType": "struct MarketUtils.CollateralType",
                      "name": "long",
                      "type": "tuple"
                    },
                    {
                      "components": [
                        {
                          "internalType": "uint256",
                          "name": "longToken",
                          "type": "uint256"
                        },
                        {
                          "internalType": "uint256",
                          "name": "shortToken",
                          "type": "uint256"
                        }
                      ],
                      "internalType": "struct MarketUtils.CollateralType",
                      "name": "short",
                      "type": "tuple"
                    }
                  ],
                  "internalType": "struct MarketUtils.PositionType",
                  "name": "fundingFeeAmountPerSizeDelta",
                  "type": "tuple"
                },
                {
                  "components": [
                    {
                      "components": [
                        {
                          "internalType": "uint256",
                          "name": "longToken",
                          "type": "uint256"
                        },
                        {
                          "internalType": "uint256",
                          "name": "shortToken",
                          "type": "uint256"
                        }
                      ],
                      "internalType": "struct MarketUtils.CollateralType",
                      "name": "long",
                      "type": "tuple"
                    },
                    {
                      "components": [
                        {
                          "internalType": "uint256",
                          "name": "longToken",
                          "type": "uint256"
                        },
                        {
                          "internalType": "uint256",
                          "name": "shortToken",
                          "type": "uint256"
                        }
                      ],
                      "internalType": "struct MarketUtils.CollateralType",
                      "name": "short",
                      "type": "tuple"
                    }
                  ],
                  "internalType": "struct MarketUtils.PositionType",
                  "name": "claimableFundingAmountPerSizeDelta",
                  "type": "tuple"
                }
              ],
              "internalType": "struct MarketUtils.GetNextFundingAmountPerSizeResult",
              "name": "nextFunding",
              "type": "tuple"
            },
            {
              "components": [
                {
                  "internalType": "uint256",
                  "name": "virtualPoolAmountForLongToken",
                  "type": "uint256"
                },
                {
                  "internalType": "uint256",
                  "name": "virtualPoolAmountForShortToken",
                  "type": "uint256"
                },
                {
                  "internalType": "int256",
                  "name": "virtualInventoryForPositions",
                  "type": "int256"
                }
              ],
              "internalType": "struct Reader.VirtualInventory",
              "name": "virtualInventory",
              "type": "tuple"
            },
            {
              "internalType": "bool",
              "name": "isDisabled",
              "type": "bool"
            }
          ],
          "internalType": "struct Reader.MarketInfo",
          "name": "",
          "type": "tuple"
        }
      ],
      "stateMutability": "view",
      "type": "function"
    },
    {
      "inputs": [
        {
          "internalType": "contract DataStore",
          "name": "dataStore",
          "type": "address"
        },
        {
          "components": [
            {
              "components": [
                {
                  "internalType": "uint256",
                  "name": "min",
                  "type": "uint256"
                },
                {
                  "internalType": "uint256",
                  "name": "max",
                  "type": "uint256"
                }
              ],
              "internalType": "struct Price.Props",
              "name": "indexTokenPrice",
              "type": "tuple"
            },
            {
              "components": [
                {
                  "internalType": "uint256",
                  "name": "min",
                  "type": "uint256"
                },
                {
                  "internalType": "uint256",
                  "name": "max",
                  "type": "uint256"
                }
              ],
              "internalType": "struct Price.Props",
              "name": "longTokenPrice",
              "type": "tuple"
            },
            {
              "components": [
                {
                  "internalType": "uint256",
                  "name": "min",
                  "type": "uint256"
                },
                {
                  "internalType": "uint256",
                  "name": "max",
                  "type": "uint256"
                }
              ],
              "internalType": "struct Price.Props",
              "name": "shortTokenPrice",
              "type": "tuple"
            }
          ],
          "internalType": "struct MarketUtils.MarketPrices[]",
          "name": "marketPricesList",
          "type": "tuple[]"
        },
        {
          "internalType": "uint256",
          "name": "start",
          "type": "uint256"
        },
        {
          "internalType": "uint256",
          "name": "end",
          "type": "uint256"
        }
      ],
      "name": "getMarketInfoList",
      "outputs": [
        {
          "components": [
            {
              "components": [
                {
                  "internalType": "address",
                  "name": "marketToken",
                  "type": "address"
                },
                {
                  "internalType": "address",
                  "name": "indexToken",
                  "type": "address"
                },
                {
                  "internalType": "address",
                  "name": "longToken",
                  "type": "address"
                },
                {
                  "internalType": "address",
                  "name": "shortToken",
                  "type": "address"
                }
              ],
              "internalType": "struct Market.Props",
              "name": "market",
              "type": "tuple"
            },
            {
              "internalType": "uint256",
              "name": "borrowingFactorPerSecondForLongs",
              "type": "uint256"
            },
            {
              "internalType": "uint256",
              "name": "borrowingFactorPerSecondForShorts",
              "type": "uint256"
            },
            {
              "components": [
                {
                  "components": [
                    {
                      "components": [
                        {
                          "internalType": "uint256",
                          "name": "longToken",
                          "type": "uint256"
                        },
                        {
                          "internalType": "uint256",
                          "name": "shortToken",
                          "type": "uint256"
                        }
                      ],
                      "internalType": "struct MarketUtils.CollateralType",
                      "name": "long",
                      "type": "tuple"
                    },
                    {
                      "components": [
                        {
                          "internalType": "uint256",
                          "name": "longToken",
                          "type": "uint256"
                        },
                        {
                          "internalType": "uint256",
                          "name": "shortToken",
                          "type": "uint256"
                        }
                      ],
                      "internalType": "struct MarketUtils.CollateralType",
                      "name": "short",
                      "type": "tuple"
                    }
                  ],
                  "internalType": "struct MarketUtils.PositionType",
                  "name": "fundingFeeAmountPerSize",
                  "type": "tuple"
                },
                {
                  "components": [
                    {
                      "components": [
                        {
                          "internalType": "uint256",
                          "name": "longToken",
                          "type": "uint256"
                        },
                        {
                          "internalType": "uint256",
                          "name": "shortToken",
                          "type": "uint256"
                        }
                      ],
                      "internalType": "struct MarketUtils.CollateralType",
                      "name": "long",
                      "type": "tuple"
                    },
                    {
                      "components": [
                        {
                          "internalType": "uint256",
                          "name": "longToken",
                          "type": "uint256"
                        },
                        {
                          "internalType": "uint256",
                          "name": "shortToken",
                          "type": "uint256"
                        }
                      ],
                      "internalType": "struct MarketUtils.CollateralType",
                      "name": "short",
                      "type": "tuple"
                    }
                  ],
                  "internalType": "struct MarketUtils.PositionType",
                  "name": "claimableFundingAmountPerSize",
                  "type": "tuple"
                }
              ],
              "internalType": "struct ReaderUtils.BaseFundingValues",
              "name": "baseFunding",
              "type": "tuple"
            },
            {
              "components": [
                {
                  "internalType": "bool",
                  "name": "longsPayShorts",
                  "type": "bool"
                },
                {
                  "internalType": "uint256",
                  "name": "fundingFactorPerSecond",
                  "type": "uint256"
                },
                {
                  "components": [
                    {
                      "components": [
                        {
                          "internalType": "uint256",
                          "name": "longToken",
                          "type": "uint256"
                        },
                        {
                          "internalType": "uint256",
                          "name": "shortToken",
                          "type": "uint256"
                        }
                      ],
                      "internalType": "struct MarketUtils.CollateralType",
                      "name": "long",
                      "type": "tuple"
                    },
                    {
                      "components": [
                        {
                          "internalType": "uint256",
                          "name": "longToken",
                          "type": "uint256"
                        },
                        {
                          "internalType": "uint256",
                          "name": "shortToken",
                          "type": "uint256"
                        }
                      ],
                      "internalType": "struct MarketUtils.CollateralType",
                      "name": "short",
                      "type": "tuple"
                    }
                  ],
                  "internalType": "struct MarketUtils.PositionType",
                  "name": "fundingFeeAmountPerSizeDelta",
                  "type": "tuple"
                },
                {
                  "components": [
                    {
                      "components": [
                        {
                          "internalType": "uint256",
                          "name": "longToken",
                          "type": "uint256"
                        },
                        {
                          "internalType": "uint256",
                          "name": "shortToken",
                          "type": "uint256"
                        }
                      ],
                      "internalType": "struct MarketUtils.CollateralType",
                      "name": "long",
                      "type": "tuple"
                    },
                    {
                      "components": [
                        {
                          "internalType": "uint256",
                          "name": "longToken",
                          "type": "uint256"
                        },
                        {
                          "internalType": "uint256",
                          "name": "shortToken",
                          "type": "uint256"
                        }
                      ],
                      "internalType": "struct MarketUtils.CollateralType",
                      "name": "short",
                      "type": "tuple"
                    }
                  ],
                  "internalType": "struct MarketUtils.PositionType",
                  "name": "claimableFundingAmountPerSizeDelta",
                  "type": "tuple"
                }
              ],
              "internalType": "struct MarketUtils.GetNextFundingAmountPerSizeResult",
              "name": "nextFunding",
              "type": "tuple"
            },
            {
              "components": [
                {
                  "internalType": "uint256",
                  "name": "virtualPoolAmountForLongToken",
                  "type": "uint256"
                },
                {
                  "internalType": "uint256",
                  "name": "virtualPoolAmountForShortToken",
                  "type": "uint256"
                },
                {
                  "internalType": "int256",
                  "name": "virtualInventoryForPositions",
                  "type": "int256"
                }
              ],
              "internalType": "struct Reader.VirtualInventory",
              "name": "virtualInventory",
              "type": "tuple"
            },
            {
              "internalType": "bool",
              "name": "isDisabled",
              "type": "bool"
            }
          ],
          "internalType": "struct Reader.MarketInfo[]",
          "name": "",
          "type": "tuple[]"
        }
      ],
      "stateMutability": "view",
      "type": "function"
    },
    {
      "inputs": [
        {
          "internalType": "contract DataStore",
          "name": "dataStore",
          "type": "address"
        },
        {
          "components": [
            {
              "internalType": "address",
              "name": "marketToken",
              "type": "address"
            },
            {
              "internalType": "address",
              "name": "indexToken",
              "type": "address"
            },
            {
              "internalType": "address",
              "name": "longToken",
              "type": "address"
            },
            {
              "internalType": "address",
              "name": "shortToken",
              "type": "address"
            }
          ],
          "internalType": "struct Market.Props",
          "name": "market",
          "type": "tuple"
        },
        {
          "components": [
            {
              "internalType": "uint256",
              "name": "min",
              "type": "uint256"
            },
            {
              "internalType": "uint256",
              "name": "max",
              "type": "uint256"
            }
          ],
          "internalType": "struct Price.Props",
          "name": "indexTokenPrice",
          "type": "tuple"
        },
        {
          "components": [
            {
              "internalType": "uint256",
              "name": "min",
              "type": "uint256"
            },
            {
              "internalType": "uint256",
              "name": "max",
              "type": "uint256"
            }
          ],
          "internalType": "struct Price.Props",
          "name": "longTokenPrice",
          "type": "tuple"
        },
        {
          "components": [
            {
              "internalType": "uint256",
              "name": "min",
              "type": "uint256"
            },
            {
              "internalType": "uint256",
              "name": "max",
              "type": "uint256"
            }
          ],
          "internalType": "struct Price.Props",
          "name": "shortTokenPrice",
          "type": "tuple"
        },
        {
          "internalType": "bytes32",
          "name": "pnlFactorType",
          "type": "bytes32"
        },
        {
          "internalType": "bool",
          "name": "maximize",
          "type": "bool"
        }
      ],
      "name": "getMarketTokenPrice",
      "outputs": [
        {
          "internalType": "int256",
          "name": "",
          "type": "int256"
        },
        {
          "components": [
            {
              "internalType": "int256",
              "name": "poolValue",
              "type": "int256"
            },
            {
              "internalType": "int256",
              "name": "longPnl",
              "type": "int256"
            },
            {
              "internalType": "int256",
              "name": "shortPnl",
              "type": "int256"
            },
            {
              "internalType": "int256",
              "name": "netPnl",
              "type": "int256"
            },
            {
              "internalType": "uint256",
              "name": "longTokenAmount",
              "type": "uint256"
            },
            {
              "internalType": "uint256",
              "name": "shortTokenAmount",
              "type": "uint256"
            },
            {
              "internalType": "uint256",
              "name": "longTokenUsd",
              "type": "uint256"
            },
            {
              "internalType": "uint256",
              "name": "shortTokenUsd",
              "type": "uint256"
            },
            {
              "internalType": "uint256",
              "name": "totalBorrowingFees",
              "type": "uint256"
            },
            {
              "internalType": "uint256",
              "name": "borrowingFeePoolFactor",
              "type": "uint256"
            },
            {
              "internalType": "uint256",
              "name": "impactPoolAmount",
              "type": "uint256"
            }
          ],
          "internalType": "struct MarketPoolValueInfo.Props",
          "name": "",
          "type": "tuple"
        }
      ],
      "stateMutability": "view",
      "type": "function"
    },
    {
      "inputs": [
        {
          "internalType": "contract DataStore",
          "name": "dataStore",
          "type": "address"
        },
        {
          "internalType": "uint256",
          "name": "start",
          "type": "uint256"
        },
        {
          "internalType": "uint256",
          "name": "end",
          "type": "uint256"
        }
      ],
      "name": "getMarkets",
      "outputs": [
        {
          "components": [
            {
              "internalType": "address",
              "name": "marketToken",
              "type": "address"
            },
            {
              "internalType": "address",
              "name": "indexToken",
              "type": "address"
            },
            {
              "internalType": "address",
              "name": "longToken",
              "type": "address"
            },
            {
              "internalType": "address",
              "name": "shortToken",
              "type": "address"
            }
          ],
          "internalType": "struct Market.Props[]",
          "name": "",
          "type": "tuple[]"
        }
      ],
      "stateMutability": "view",
      "type": "function"
    },
    {
      "inputs": [
        {
          "internalType": "contract DataStore",
          "name": "dataStore",
          "type": "address"
        },
        {
          "components": [
            {
              "internalType": "address",
              "name": "marketToken",
              "type": "address"
            },
            {
              "internalType": "address",
              "name": "indexToken",
              "type": "address"
            },
            {
              "internalType": "address",
              "name": "longToken",
              "type": "address"
            },
            {
              "internalType": "address",
              "name": "shortToken",
              "type": "address"
            }
          ],
          "internalType": "struct Market.Props",
          "name": "market",
          "type": "tuple"
        },
        {
          "components": [
            {
              "internalType": "uint256",
              "name": "min",
              "type": "uint256"
            },
            {
              "internalType": "uint256",
              "name": "max",
              "type": "uint256"
            }
          ],
          "internalType": "struct Price.Props",
          "name": "indexTokenPrice",
          "type": "tuple"
        },
        {
          "internalType": "bool",
          "name": "maximize",
          "type": "bool"
        }
      ],
      "name": "getNetPnl",
      "outputs": [
        {
          "internalType": "int256",
          "name": "",
          "type": "int256"
        }
      ],
      "stateMutability": "view",
      "type": "function"
    },
    {
      "inputs": [
        {
          "internalType": "contract DataStore",
          "name": "dataStore",
          "type": "address"
        },
        {
          "components": [
            {
              "internalType": "address",
              "name": "marketToken",
              "type": "address"
            },
            {
              "internalType": "address",
              "name": "indexToken",
              "type": "address"
            },
            {
              "internalType": "address",
              "name": "longToken",
              "type": "address"
            },
            {
              "internalType": "address",
              "name": "shortToken",
              "type": "address"
            }
          ],
          "internalType": "struct Market.Props",
          "name": "market",
          "type": "tuple"
        },
        {
          "components": [
            {
              "internalType": "uint256",
              "name": "min",
              "type": "uint256"
            },
            {
              "internalType": "uint256",
              "name": "max",
              "type": "uint256"
            }
          ],
          "internalType": "struct Price.Props",
          "name": "indexTokenPrice",
          "type": "tuple"
        },
        {
          "internalType": "bool",
          "name": "isLong",
          "type": "bool"
        },
        {
          "internalType": "bool",
          "name": "maximize",
          "type": "bool"
        }
      ],
      "name": "getOpenInterestWithPnl",
      "outputs": [
        {
          "internalType": "int256",
          "name": "",
          "type": "int256"
        }
      ],
      "stateMutability": "view",
      "type": "function"
    },
    {
      "inputs": [
        {
          "internalType": "contract DataStore",
          "name": "dataStore",
          "type": "address"
        },
        {
          "internalType": "bytes32",
          "name": "key",
          "type": "bytes32"
        }
      ],
      "name": "getOrder",
      "outputs": [
        {
          "components": [
            {
              "components": [
                {
                  "internalType": "address",
                  "name": "account",
                  "type": "address"
                },
                {
                  "internalType": "address",
                  "name": "receiver",
                  "type": "address"
                },
                {
                  "internalType": "address",
                  "name": "callbackContract",
                  "type": "address"
                },
                {
                  "internalType": "address",
                  "name": "uiFeeReceiver",
                  "type": "address"
                },
                {
                  "internalType": "address",
                  "name": "market",
                  "type": "address"
                },
                {
                  "internalType": "address",
                  "name": "initialCollateralToken",
                  "type": "address"
                },
                {
                  "internalType": "address[]",
                  "name": "swapPath",
                  "type": "address[]"
                }
              ],
              "internalType": "struct Order.Addresses",
              "name": "addresses",
              "type": "tuple"
            },
            {
              "components": [
                {
                  "internalType": "enum Order.OrderType",
                  "name": "orderType",
                  "type": "uint8"
                },
                {
                  "internalType": "enum Order.DecreasePositionSwapType",
                  "name": "decreasePositionSwapType",
                  "type": "uint8"
                },
                {
                  "internalType": "uint256",
                  "name": "sizeDeltaUsd",
                  "type": "uint256"
                },
                {
                  "internalType": "uint256",
                  "name": "initialCollateralDeltaAmount",
                  "type": "uint256"
                },
                {
                  "internalType": "uint256",
                  "name": "triggerPrice",
                  "type": "uint256"
                },
                {
                  "internalType": "uint256",
                  "name": "acceptablePrice",
                  "type": "uint256"
                },
                {
                  "internalType": "uint256",
                  "name": "executionFee",
                  "type": "uint256"
                },
                {
                  "internalType": "uint256",
                  "name": "callbackGasLimit",
                  "type": "uint256"
                },
                {
                  "internalType": "uint256",
                  "name": "minOutputAmount",
                  "type": "uint256"
                },
                {
                  "internalType": "uint256",
                  "name": "updatedAtBlock",
                  "type": "uint256"
                }
              ],
              "internalType": "struct Order.Numbers",
              "name": "numbers",
              "type": "tuple"
            },
            {
              "components": [
                {
                  "internalType": "bool",
                  "name": "isLong",
                  "type": "bool"
                },
                {
                  "internalType": "bool",
                  "name": "shouldUnwrapNativeToken",
                  "type": "bool"
                },
                {
                  "internalType": "bool",
                  "name": "isFrozen",
                  "type": "bool"
                }
              ],
              "internalType": "struct Order.Flags",
              "name": "flags",
              "type": "tuple"
            }
          ],
          "internalType": "struct Order.Props",
          "name": "",
          "type": "tuple"
        }
      ],
      "stateMutability": "view",
      "type": "function"
    },
    {
      "inputs": [
        {
          "internalType": "contract DataStore",
          "name": "dataStore",
          "type": "address"
        },
        {
          "components": [
            {
              "internalType": "address",
              "name": "marketToken",
              "type": "address"
            },
            {
              "internalType": "address",
              "name": "indexToken",
              "type": "address"
            },
            {
              "internalType": "address",
              "name": "longToken",
              "type": "address"
            },
            {
              "internalType": "address",
              "name": "shortToken",
              "type": "address"
            }
          ],
          "internalType": "struct Market.Props",
          "name": "market",
          "type": "tuple"
        },
        {
          "components": [
            {
              "internalType": "uint256",
              "name": "min",
              "type": "uint256"
            },
            {
              "internalType": "uint256",
              "name": "max",
              "type": "uint256"
            }
          ],
          "internalType": "struct Price.Props",
          "name": "indexTokenPrice",
          "type": "tuple"
        },
        {
          "internalType": "bool",
          "name": "isLong",
          "type": "bool"
        },
        {
          "internalType": "bool",
          "name": "maximize",
          "type": "bool"
        }
      ],
      "name": "getPnl",
      "outputs": [
        {
          "internalType": "int256",
          "name": "",
          "type": "int256"
        }
      ],
      "stateMutability": "view",
      "type": "function"
    },
    {
      "inputs": [
        {
          "internalType": "contract DataStore",
          "name": "dataStore",
          "type": "address"
        },
        {
          "internalType": "address",
          "name": "marketAddress",
          "type": "address"
        },
        {
          "components": [
            {
              "components": [
                {
                  "internalType": "uint256",
                  "name": "min",
                  "type": "uint256"
                },
                {
                  "internalType": "uint256",
                  "name": "max",
                  "type": "uint256"
                }
              ],
              "internalType": "struct Price.Props",
              "name": "indexTokenPrice",
              "type": "tuple"
            },
            {
              "components": [
                {
                  "internalType": "uint256",
                  "name": "min",
                  "type": "uint256"
                },
                {
                  "internalType": "uint256",
                  "name": "max",
                  "type": "uint256"
                }
              ],
              "internalType": "struct Price.Props",
              "name": "longTokenPrice",
              "type": "tuple"
            },
            {
              "components": [
                {
                  "internalType": "uint256",
                  "name": "min",
                  "type": "uint256"
                },
                {
                  "internalType": "uint256",
                  "name": "max",
                  "type": "uint256"
                }
              ],
              "internalType": "struct Price.Props",
              "name": "shortTokenPrice",
              "type": "tuple"
            }
          ],
          "internalType": "struct MarketUtils.MarketPrices",
          "name": "prices",
          "type": "tuple"
        },
        {
          "internalType": "bool",
          "name": "isLong",
          "type": "bool"
        },
        {
          "internalType": "bool",
          "name": "maximize",
          "type": "bool"
        }
      ],
      "name": "getPnlToPoolFactor",
      "outputs": [
        {
          "internalType": "int256",
          "name": "",
          "type": "int256"
        }
      ],
      "stateMutability": "view",
      "type": "function"
    },
    {
      "inputs": [
        {
          "internalType": "contract DataStore",
          "name": "dataStore",
          "type": "address"
        },
        {
          "internalType": "bytes32",
          "name": "key",
          "type": "bytes32"
        }
      ],
      "name": "getPosition",
      "outputs": [
        {
          "components": [
            {
              "components": [
                {
                  "internalType": "address",
                  "name": "account",
                  "type": "address"
                },
                {
                  "internalType": "address",
                  "name": "market",
                  "type": "address"
                },
                {
                  "internalType": "address",
                  "name": "collateralToken",
                  "type": "address"
                }
              ],
              "internalType": "struct Position.Addresses",
              "name": "addresses",
              "type": "tuple"
            },
            {
              "components": [
                {
                  "internalType": "uint256",
                  "name": "sizeInUsd",
                  "type": "uint256"
                },
                {
                  "internalType": "uint256",
                  "name": "sizeInTokens",
                  "type": "uint256"
                },
                {
                  "internalType": "uint256",
                  "name": "collateralAmount",
                  "type": "uint256"
                },
                {
                  "internalType": "uint256",
                  "name": "borrowingFactor",
                  "type": "uint256"
                },
                {
                  "internalType": "uint256",
                  "name": "fundingFeeAmountPerSize",
                  "type": "uint256"
                },
                {
                  "internalType": "uint256",
                  "name": "longTokenClaimableFundingAmountPerSize",
                  "type": "uint256"
                },
                {
                  "internalType": "uint256",
                  "name": "shortTokenClaimableFundingAmountPerSize",
                  "type": "uint256"
                },
                {
                  "internalType": "uint256",
                  "name": "increasedAtBlock",
                  "type": "uint256"
                },
                {
                  "internalType": "uint256",
                  "name": "decreasedAtBlock",
                  "type": "uint256"
                }
              ],
              "internalType": "struct Position.Numbers",
              "name": "numbers",
              "type": "tuple"
            },
            {
              "components": [
                {
                  "internalType": "bool",
                  "name": "isLong",
                  "type": "bool"
                }
              ],
              "internalType": "struct Position.Flags",
              "name": "flags",
              "type": "tuple"
            }
          ],
          "internalType": "struct Position.Props",
          "name": "",
          "type": "tuple"
        }
      ],
      "stateMutability": "view",
      "type": "function"
    },
    {
      "inputs": [
        {
          "internalType": "contract DataStore",
          "name": "dataStore",
          "type": "address"
        },
        {
          "internalType": "contract IReferralStorage",
          "name": "referralStorage",
          "type": "address"
        },
        {
          "internalType": "bytes32",
          "name": "positionKey",
          "type": "bytes32"
        },
        {
          "components": [
            {
              "components": [
                {
                  "internalType": "uint256",
                  "name": "min",
                  "type": "uint256"
                },
                {
                  "internalType": "uint256",
                  "name": "max",
                  "type": "uint256"
                }
              ],
              "internalType": "struct Price.Props",
              "name": "indexTokenPrice",
              "type": "tuple"
            },
            {
              "components": [
                {
                  "internalType": "uint256",
                  "name": "min",
                  "type": "uint256"
                },
                {
                  "internalType": "uint256",
                  "name": "max",
                  "type": "uint256"
                }
              ],
              "internalType": "struct Price.Props",
              "name": "longTokenPrice",
              "type": "tuple"
            },
            {
              "components": [
                {
                  "internalType": "uint256",
                  "name": "min",
                  "type": "uint256"
                },
                {
                  "internalType": "uint256",
                  "name": "max",
                  "type": "uint256"
                }
              ],
              "internalType": "struct Price.Props",
              "name": "shortTokenPrice",
              "type": "tuple"
            }
          ],
          "internalType": "struct MarketUtils.MarketPrices",
          "name": "prices",
          "type": "tuple"
        },
        {
          "internalType": "uint256",
          "name": "sizeDeltaUsd",
          "type": "uint256"
        },
        {
          "internalType": "address",
          "name": "uiFeeReceiver",
          "type": "address"
        },
        {
          "internalType": "bool",
          "name": "usePositionSizeAsSizeDeltaUsd",
          "type": "bool"
        }
      ],
      "name": "getPositionInfo",
      "outputs": [
        {
          "components": [
            {
              "components": [
                {
                  "components": [
                    {
                      "internalType": "address",
                      "name": "account",
                      "type": "address"
                    },
                    {
                      "internalType": "address",
                      "name": "market",
                      "type": "address"
                    },
                    {
                      "internalType": "address",
                      "name": "collateralToken",
                      "type": "address"
                    }
                  ],
                  "internalType": "struct Position.Addresses",
                  "name": "addresses",
                  "type": "tuple"
                },
                {
                  "components": [
                    {
                      "internalType": "uint256",
                      "name": "sizeInUsd",
                      "type": "uint256"
                    },
                    {
                      "internalType": "uint256",
                      "name": "sizeInTokens",
                      "type": "uint256"
                    },
                    {
                      "internalType": "uint256",
                      "name": "collateralAmount",
                      "type": "uint256"
                    },
                    {
                      "internalType": "uint256",
                      "name": "borrowingFactor",
                      "type": "uint256"
                    },
                    {
                      "internalType": "uint256",
                      "name": "fundingFeeAmountPerSize",
                      "type": "uint256"
                    },
                    {
                      "internalType": "uint256",
                      "name": "longTokenClaimableFundingAmountPerSize",
                      "type": "uint256"
                    },
                    {
                      "internalType": "uint256",
                      "name": "shortTokenClaimableFundingAmountPerSize",
                      "type": "uint256"
                    },
                    {
                      "internalType": "uint256",
                      "name": "increasedAtBlock",
                      "type": "uint256"
                    },
                    {
                      "internalType": "uint256",
                      "name": "decreasedAtBlock",
                      "type": "uint256"
                    }
                  ],
                  "internalType": "struct Position.Numbers",
                  "name": "numbers",
                  "type": "tuple"
                },
                {
                  "components": [
                    {
                      "internalType": "bool",
                      "name": "isLong",
                      "type": "bool"
                    }
                  ],
                  "internalType": "struct Position.Flags",
                  "name": "flags",
                  "type": "tuple"
                }
              ],
              "internalType": "struct Position.Props",
              "name": "position",
              "type": "tuple"
            },
            {
              "components": [
                {
                  "components": [
                    {
                      "internalType": "bytes32",
                      "name": "referralCode",
                      "type": "bytes32"
                    },
                    {
                      "internalType": "address",
                      "name": "affiliate",
                      "type": "address"
                    },
                    {
                      "internalType": "address",
                      "name": "trader",
                      "type": "address"
                    },
                    {
                      "internalType": "uint256",
                      "name": "totalRebateFactor",
                      "type": "uint256"
                    },
                    {
                      "internalType": "uint256",
                      "name": "traderDiscountFactor",
                      "type": "uint256"
                    },
                    {
                      "internalType": "uint256",
                      "name": "totalRebateAmount",
                      "type": "uint256"
                    },
                    {
                      "internalType": "uint256",
                      "name": "traderDiscountAmount",
                      "type": "uint256"
                    },
                    {
                      "internalType": "uint256",
                      "name": "affiliateRewardAmount",
                      "type": "uint256"
                    }
                  ],
                  "internalType": "struct PositionPricingUtils.PositionReferralFees",
                  "name": "referral",
                  "type": "tuple"
                },
                {
                  "components": [
                    {
                      "internalType": "uint256",
                      "name": "fundingFeeAmount",
                      "type": "uint256"
                    },
                    {
                      "internalType": "uint256",
                      "name": "claimableLongTokenAmount",
                      "type": "uint256"
                    },
                    {
                      "internalType": "uint256",
                      "name": "claimableShortTokenAmount",
                      "type": "uint256"
                    },
                    {
                      "internalType": "uint256",
                      "name": "latestFundingFeeAmountPerSize",
                      "type": "uint256"
                    },
                    {
                      "internalType": "uint256",
                      "name": "latestLongTokenClaimableFundingAmountPerSize",
                      "type": "uint256"
                    },
                    {
                      "internalType": "uint256",
                      "name": "latestShortTokenClaimableFundingAmountPerSize",
                      "type": "uint256"
                    }
                  ],
                  "internalType": "struct PositionPricingUtils.PositionFundingFees",
                  "name": "funding",
                  "type": "tuple"
                },
                {
                  "components": [
                    {
                      "internalType": "uint256",
                      "name": "borrowingFeeUsd",
                      "type": "uint256"
                    },
                    {
                      "internalType": "uint256",
                      "name": "borrowingFeeAmount",
                      "type": "uint256"
                    },
                    {
                      "internalType": "uint256",
                      "name": "borrowingFeeReceiverFactor",
                      "type": "uint256"
                    },
                    {
                      "internalType": "uint256",
                      "name": "borrowingFeeAmountForFeeReceiver",
                      "type": "uint256"
                    }
                  ],
                  "internalType": "struct PositionPricingUtils.PositionBorrowingFees",
                  "name": "borrowing",
                  "type": "tuple"
                },
                {
                  "components": [
                    {
                      "internalType": "address",
                      "name": "uiFeeReceiver",
                      "type": "address"
                    },
                    {
                      "internalType": "uint256",
                      "name": "uiFeeReceiverFactor",
                      "type": "uint256"
                    },
                    {
                      "internalType": "uint256",
                      "name": "uiFeeAmount",
                      "type": "uint256"
                    }
                  ],
                  "internalType": "struct PositionPricingUtils.PositionUiFees",
                  "name": "ui",
                  "type": "tuple"
                },
                {
                  "components": [
                    {
                      "internalType": "uint256",
                      "name": "min",
                      "type": "uint256"
                    },
                    {
                      "internalType": "uint256",
                      "name": "max",
                      "type": "uint256"
                    }
                  ],
                  "internalType": "struct Price.Props",
                  "name": "collateralTokenPrice",
                  "type": "tuple"
                },
                {
                  "internalType": "uint256",
                  "name": "positionFeeFactor",
                  "type": "uint256"
                },
                {
                  "internalType": "uint256",
                  "name": "protocolFeeAmount",
                  "type": "uint256"
                },
                {
                  "internalType": "uint256",
                  "name": "positionFeeReceiverFactor",
                  "type": "uint256"
                },
                {
                  "internalType": "uint256",
                  "name": "feeReceiverAmount",
                  "type": "uint256"
                },
                {
                  "internalType": "uint256",
                  "name": "feeAmountForPool",
                  "type": "uint256"
                },
                {
                  "internalType": "uint256",
                  "name": "positionFeeAmountForPool",
                  "type": "uint256"
                },
                {
                  "internalType": "uint256",
                  "name": "positionFeeAmount",
                  "type": "uint256"
                },
                {
                  "internalType": "uint256",
                  "name": "totalCostAmountExcludingFunding",
                  "type": "uint256"
                },
                {
                  "internalType": "uint256",
                  "name": "totalCostAmount",
                  "type": "uint256"
                }
              ],
              "internalType": "struct PositionPricingUtils.PositionFees",
              "name": "fees",
              "type": "tuple"
            },
            {
              "components": [
                {
                  "internalType": "int256",
                  "name": "priceImpactUsd",
                  "type": "int256"
                },
                {
                  "internalType": "uint256",
                  "name": "priceImpactDiffUsd",
                  "type": "uint256"
                },
                {
                  "internalType": "uint256",
                  "name": "executionPrice",
                  "type": "uint256"
                }
              ],
              "internalType": "struct ReaderPricingUtils.ExecutionPriceResult",
              "name": "executionPriceResult",
              "type": "tuple"
            },
            {
              "internalType": "int256",
              "name": "basePnlUsd",
              "type": "int256"
            },
            {
              "internalType": "int256",
              "name": "uncappedBasePnlUsd",
              "type": "int256"
            },
            {
              "internalType": "int256",
              "name": "pnlAfterPriceImpactUsd",
              "type": "int256"
            }
          ],
          "internalType": "struct ReaderUtils.PositionInfo",
          "name": "",
          "type": "tuple"
        }
      ],
      "stateMutability": "view",
      "type": "function"
    },
    {
      "inputs": [
        {
          "internalType": "contract DataStore",
          "name": "dataStore",
          "type": "address"
        },
        {
          "components": [
            {
              "internalType": "address",
              "name": "marketToken",
              "type": "address"
            },
            {
              "internalType": "address",
              "name": "indexToken",
              "type": "address"
            },
            {
              "internalType": "address",
              "name": "longToken",
              "type": "address"
            },
            {
              "internalType": "address",
              "name": "shortToken",
              "type": "address"
            }
          ],
          "internalType": "struct Market.Props",
          "name": "market",
          "type": "tuple"
        },
        {
          "components": [
            {
              "components": [
                {
                  "internalType": "uint256",
                  "name": "min",
                  "type": "uint256"
                },
                {
                  "internalType": "uint256",
                  "name": "max",
                  "type": "uint256"
                }
              ],
              "internalType": "struct Price.Props",
              "name": "indexTokenPrice",
              "type": "tuple"
            },
            {
              "components": [
                {
                  "internalType": "uint256",
                  "name": "min",
                  "type": "uint256"
                },
                {
                  "internalType": "uint256",
                  "name": "max",
                  "type": "uint256"
                }
              ],
              "internalType": "struct Price.Props",
              "name": "longTokenPrice",
              "type": "tuple"
            },
            {
              "components": [
                {
                  "internalType": "uint256",
                  "name": "min",
                  "type": "uint256"
                },
                {
                  "internalType": "uint256",
                  "name": "max",
                  "type": "uint256"
                }
              ],
              "internalType": "struct Price.Props",
              "name": "shortTokenPrice",
              "type": "tuple"
            }
          ],
          "internalType": "struct MarketUtils.MarketPrices",
          "name": "prices",
          "type": "tuple"
        },
        {
          "internalType": "bytes32",
          "name": "positionKey",
          "type": "bytes32"
        },
        {
          "internalType": "uint256",
          "name": "sizeDeltaUsd",
          "type": "uint256"
        }
      ],
      "name": "getPositionPnlUsd",
      "outputs": [
        {
          "internalType": "int256",
          "name": "",
          "type": "int256"
        },
        {
          "internalType": "int256",
          "name": "",
          "type": "int256"
        },
        {
          "internalType": "uint256",
          "name": "",
          "type": "uint256"
        }
      ],
      "stateMutability": "view",
      "type": "function"
    },
    {
      "inputs": [
        {
          "internalType": "contract DataStore",
          "name": "dataStore",
          "type": "address"
        },
        {
          "components": [
            {
              "internalType": "address",
              "name": "marketToken",
              "type": "address"
            },
            {
              "internalType": "address",
              "name": "indexToken",
              "type": "address"
            },
            {
              "internalType": "address",
              "name": "longToken",
              "type": "address"
            },
            {
              "internalType": "address",
              "name": "shortToken",
              "type": "address"
            }
          ],
          "internalType": "struct Market.Props",
          "name": "market",
          "type": "tuple"
        },
        {
          "components": [
            {
              "components": [
                {
                  "internalType": "uint256",
                  "name": "min",
                  "type": "uint256"
                },
                {
                  "internalType": "uint256",
                  "name": "max",
                  "type": "uint256"
                }
              ],
              "internalType": "struct Price.Props",
              "name": "indexTokenPrice",
              "type": "tuple"
            },
            {
              "components": [
                {
                  "internalType": "uint256",
                  "name": "min",
                  "type": "uint256"
                },
                {
                  "internalType": "uint256",
                  "name": "max",
                  "type": "uint256"
                }
              ],
              "internalType": "struct Price.Props",
              "name": "longTokenPrice",
              "type": "tuple"
            },
            {
              "components": [
                {
                  "internalType": "uint256",
                  "name": "min",
                  "type": "uint256"
                },
                {
                  "internalType": "uint256",
                  "name": "max",
                  "type": "uint256"
                }
              ],
              "internalType": "struct Price.Props",
              "name": "shortTokenPrice",
              "type": "tuple"
            }
          ],
          "internalType": "struct MarketUtils.MarketPrices",
          "name": "prices",
          "type": "tuple"
        },
        {
          "internalType": "address",
          "name": "tokenIn",
          "type": "address"
        },
        {
          "internalType": "uint256",
          "name": "amountIn",
          "type": "uint256"
        },
        {
          "internalType": "address",
          "name": "uiFeeReceiver",
          "type": "address"
        }
      ],
      "name": "getSwapAmountOut",
      "outputs": [
        {
          "internalType": "uint256",
          "name": "",
          "type": "uint256"
        },
        {
          "internalType": "int256",
          "name": "",
          "type": "int256"
        },
        {
          "components": [
            {
              "internalType": "uint256",
              "name": "feeReceiverAmount",
              "type": "uint256"
            },
            {
              "internalType": "uint256",
              "name": "feeAmountForPool",
              "type": "uint256"
            },
            {
              "internalType": "uint256",
              "name": "amountAfterFees",
              "type": "uint256"
            },
            {
              "internalType": "address",
              "name": "uiFeeReceiver",
              "type": "address"
            },
            {
              "internalType": "uint256",
              "name": "uiFeeReceiverFactor",
              "type": "uint256"
            },
            {
              "internalType": "uint256",
              "name": "uiFeeAmount",
              "type": "uint256"
            }
          ],
          "internalType": "struct SwapPricingUtils.SwapFees",
          "name": "fees",
          "type": "tuple"
        }
      ],
      "stateMutability": "view",
      "type": "function"
    },
    {
      "inputs": [
        {
          "internalType": "contract DataStore",
          "name": "dataStore",
          "type": "address"
        },
        {
          "internalType": "address",
          "name": "marketKey",
          "type": "address"
        },
        {
          "internalType": "address",
          "name": "tokenIn",
          "type": "address"
        },
        {
          "internalType": "address",
          "name": "tokenOut",
          "type": "address"
        },
        {
          "internalType": "uint256",
          "name": "amountIn",
          "type": "uint256"
        },
        {
          "components": [
            {
              "internalType": "uint256",
              "name": "min",
              "type": "uint256"
            },
            {
              "internalType": "uint256",
              "name": "max",
              "type": "uint256"
            }
          ],
          "internalType": "struct Price.Props",
          "name": "tokenInPrice",
          "type": "tuple"
        },
        {
          "components": [
            {
              "internalType": "uint256",
              "name": "min",
              "type": "uint256"
            },
            {
              "internalType": "uint256",
              "name": "max",
              "type": "uint256"
            }
          ],
          "internalType": "struct Price.Props",
          "name": "tokenOutPrice",
          "type": "tuple"
        }
      ],
      "name": "getSwapPriceImpact",
      "outputs": [
        {
          "internalType": "int256",
          "name": "",
          "type": "int256"
        },
        {
          "internalType": "int256",
          "name": "",
          "type": "int256"
        }
      ],
      "stateMutability": "view",
      "type": "function"
    },
    {
      "inputs": [
        {
          "internalType": "contract DataStore",
          "name": "dataStore",
          "type": "address"
        },
        {
          "internalType": "bytes32",
          "name": "key",
          "type": "bytes32"
        }
      ],
      "name": "getWithdrawal",
      "outputs": [
        {
          "components": [
            {
              "components": [
                {
                  "internalType": "address",
                  "name": "account",
                  "type": "address"
                },
                {
                  "internalType": "address",
                  "name": "receiver",
                  "type": "address"
                },
                {
                  "internalType": "address",
                  "name": "callbackContract",
                  "type": "address"
                },
                {
                  "internalType": "address",
                  "name": "uiFeeReceiver",
                  "type": "address"
                },
                {
                  "internalType": "address",
                  "name": "market",
                  "type": "address"
                },
                {
                  "internalType": "address[]",
                  "name": "longTokenSwapPath",
                  "type": "address[]"
                },
                {
                  "internalType": "address[]",
                  "name": "shortTokenSwapPath",
                  "type": "address[]"
                }
              ],
              "internalType": "struct Withdrawal.Addresses",
              "name": "addresses",
              "type": "tuple"
            },
            {
              "components": [
                {
                  "internalType": "uint256",
                  "name": "marketTokenAmount",
                  "type": "uint256"
                },
                {
                  "internalType": "uint256",
                  "name": "minLongTokenAmount",
                  "type": "uint256"
                },
                {
                  "internalType": "uint256",
                  "name": "minShortTokenAmount",
                  "type": "uint256"
                },
                {
                  "internalType": "uint256",
                  "name": "updatedAtBlock",
                  "type": "uint256"
                },
                {
                  "internalType": "uint256",
                  "name": "executionFee",
                  "type": "uint256"
                },
                {
                  "internalType": "uint256",
                  "name": "callbackGasLimit",
                  "type": "uint256"
                }
              ],
              "internalType": "struct Withdrawal.Numbers",
              "name": "numbers",
              "type": "tuple"
            },
            {
              "components": [
                {
                  "internalType": "bool",
                  "name": "shouldUnwrapNativeToken",
                  "type": "bool"
                }
              ],
              "internalType": "struct Withdrawal.Flags",
              "name": "flags",
              "type": "tuple"
            }
          ],
          "internalType": "struct Withdrawal.Props",
          "name": "",
          "type": "tuple"
        }
      ],
      "stateMutability": "view",
      "type": "function"
    }
  ],
  "transactionHash": "0xb4afed6aa17d6b85c592a7ceeb2748f3bdb850105b4b18c7a1b4f9466cb8bc13",
  "args": [],
  "numDeployments": 1,
  "solcInputHash": "24599e30d3c650c241e3294b45d1c871",
  "bytecode": "0x608060405234801561001057600080fd5b50615f7b80620000216000396000f3fe608060405234801561001057600080fd5b506004361061011d5760003560e01c80630815bce114610122578063095ce6c51461014b5780630fa8f516146101f45780631485d2971461021457806324c029e0146102345780632b17b4fd14610255578063409f37c71461028857806342a6f8d3146102fa57806349651b6a1461031a5780635d2b44f91461033a5780635d5c6efe1461035a578063714af34b1461038257806377cfb162146103a2578063847bb469146103c2578063971de27d146103e2578063a0140938146103f5578063a4f0d55014610408578063b4976dae1461041b578063bc7b5bba1461043d578063ce3264bf1461045d578063ceeea3bf1461047d578063ece9e0c81461049d578063fd50649d146104bd575b600080fd5b610135610130366004613ceb565b6104d0565b6040516101429190614023565b60405180910390f35b61015e61015936600461409a565b610569565b60405161014292919060006101808201905083825282516020830152602083015160408301526040830151606083015260608301516080830152608083015160a083015260a083015160c083015260c083015160e083015260e083015161010081818501528085015191505061012081818501528085015191505061014081818501528085015161016085015250509392505050565b610207610202366004614117565b61065d565b6040516101429190614143565b610227610222366004614117565b6106e9565b6040516101429190614196565b61024761024236600461429a565b61076f565b604051908152602001610142565b61026861026336600461430b565b61078a565b604080519485529215156020850152918301526060820152608001610142565b61029b610296366004614367565b610825565b604080519384526020808501939093528151848201529181015160608085019190915291810151608080850191909152918101516001600160a01b031660a0808501919091529181015160c0840152015160e082015261010001610142565b61030d6103083660046143e2565b6108ff565b60405161014291906145af565b61032d610328366004614117565b610a4e565b6040516101429190614611565b61034d610348366004614624565b610ad4565b604051610142919061468f565b61036d61036836600461469d565b610bed565b60408051928352602083019190915201610142565b610395610390366004614727565b610d03565b6040516101429190614793565b6103b56103b03660046143e2565b610d85565b60405161014291906147a1565b6103d56103d03660046147f0565b610ec4565b6040516101429190614902565b6102476103f0366004614911565b611138565b61024761040336600461429a565b6111cf565b610395610416366004614117565b6111de565b61042e610429366004614976565b61121f565b604051610142939291906149d2565b61045061044b366004614a80565b611335565b6040516101429190614adf565b61047061046b366004614b22565b611422565b6040516101429190614b57565b61049061048b366004614117565b61156f565b6040516101429190614b99565b6104b06104ab366004614c62565b6115f5565b6040516101429190614d52565b6102476104cb366004614d95565b6116de565b6104d86135e0565b6040516306bc109960e31b815273528Caa4A484ca9ecA6498BCc2b4930aab8eE268A906335e084c89061051b908b908b908b908b908b908b908b90600401614e20565b61066060405180830381865af4158015610539573d6000803e3d6000fd5b505050506040513d601f19601f8201168201806040525081019061055d91906151b3565b98975050505050505050565b60006105c860405180610160016040528060008152602001600081526020016000815260200160008152602001600081526020016000815260200160008152602001600081526020016000815260200160008152602001600081525090565b604051637d494dc360e01b8152739046E79D124682C452674F001a7bC5b25EaDFe5d90637d494dc39061060b908c908c908c908c908c908c908c90600401615301565b61018060405180830381865af4158015610629573d6000803e3d6000fd5b505050506040513d601f19601f8201168201806040525081019061064d9190615363565b9150915097509795505050505050565b610665613628565b60405163fdfc26f360e01b8152736054160c4AB083Bd523588Bce7DC0396437d98fE9063fdfc26f39061069e9086908690600401615417565b6101a060405180830381865af41580156106bc573d6000803e3d6000fd5b505050506040513d601f19601f820116820180604052508101906106e09190615430565b90505b92915050565b6106f16136be565b60405163fdfc26f360e01b8152735f49B6B788a0d6F8592f9717aF360d78a8e3f3879063fdfc26f39061072a9086908690600401615417565b600060405180830381865af4158015610747573d6000803e3d6000fd5b505050506040513d6000823e601f3d908101601f191682016040526106e091908101906154b1565b600061077e86868686866116ec565b90505b95945050505050565b600080600080600061079d89898961177d565b905060006107ab8a8a6117f7565b9050600080600061080e8d858c8e6040516020016107f39060208082526016908201527513505617d4139317d19050d513d497d193d497d0511360521b604082015260600190565b60405160208183030381529060405280519060200120611888565b969f919e509c50949a509398505050505050505050565b60008061086a6040518060c0016040528060008152602001600081526020016000815260200160006001600160a01b0316815260200160008152602001600081525090565b60405163dafa66bf60e01b8152730dCB9DFbEa4A7792C905B96D34A42Ea1ab3a6Fc69063dafa66bf906108ab908c908c908c908c908c908c9060040161560b565b61010060405180830381865af41580156108c9573d6000803e3d6000fd5b505050506040513d601f19601f820116820180604052508101906108ed919061565d565b92509250925096509650969350505050565b6060600061090f868686866118dc565b9050600081516001600160401b0381111561092c5761092c613ace565b60405190808252806020026020018201604052801561096557816020015b610952613750565b81526020019060019003908161094a5790505b50905060005b8251811015610a41576000838281518110610988576109886156e5565b60200260200101519050736dc2E1F959C6bfa646d7C84f749d2D249d58b1Ef63fdfc26f38a836040518363ffffffff1660e01b81526004016109cb929190615417565b600060405180830381865af41580156109e8573d6000803e3d6000fd5b505050506040513d6000823e601f3d908101601f19168201604052610a1091908101906157f6565b838381518110610a2257610a226156e5565b6020026020010181905250508080610a3990615930565b91505061096b565b509150505b949350505050565b610a56613750565b60405163fdfc26f360e01b8152736dc2E1F959C6bfa646d7C84f749d2D249d58b1Ef9063fdfc26f390610a8f9086908690600401615417565b600060405180830381865af4158015610aac573d6000803e3d6000fd5b505050506040513d6000823e601f3d908101601f191682016040526106e091908101906157f6565b610adc613811565b60405163a8d8fff560e01b815260009073C6877b65c58200E0da3C68c151ad48dC4783b1349063a8d8fff590610b18908c908c90600401615949565b608060405180830381865af4158015610b35573d6000803e3d6000fd5b505050506040513d601f19601f82011682018060405250810190610b599190615963565b604051630a37d4c760e11b8152909150730dCB9DFbEa4A7792C905B96D34A42Ea1ab3a6Fc69063146fa98e90610b9f908c9085908c908c908c908c908c906004016159ca565b606060405180830381865af4158015610bbc573d6000803e3d6000fd5b505050506040513d601f19601f82011682018060405250810190610be09190615a1e565b9998505050505050505050565b600080600073C6877b65c58200E0da3C68c151ad48dC4783b13463a8d8fff58b8b6040518363ffffffff1660e01b8152600401610c2b929190615949565b608060405180830381865af4158015610c48573d6000803e3d6000fd5b505050506040513d601f19601f82011682018060405250810190610c6c9190615963565b6040516340f5d44f60e11b8152909150730dCB9DFbEa4A7792C905B96D34A42Ea1ab3a6Fc6906381eba89e90610cb2908d9085908d908d908d908d908d90600401615a3a565b6040805180830381865af4158015610cce573d6000803e3d6000fd5b505050506040513d601f19601f82011682018060405250810190610cf29190615a8c565b925092505097509795505050505050565b610d0b613832565b60405163a8d8fff560e01b815273C6877b65c58200E0da3C68c151ad48dC4783b1349063a8d8fff590610d449086908690600401615949565b608060405180830381865af4158015610d61573d6000803e3d6000fd5b505050506040513d601f19601f820116820180604052508101906106e09190615963565b60606000610d958686868661195b565b9050600081516001600160401b03811115610db257610db2613ace565b604051908082528060200260200182016040528015610deb57816020015b610dd8613628565b815260200190600190039081610dd05790505b50905060005b8251811015610a41576000838281518110610e0e57610e0e6156e5565b60200260200101519050736054160c4AB083Bd523588Bce7DC0396437d98fE63fdfc26f38a836040518363ffffffff1660e01b8152600401610e51929190615417565b6101a060405180830381865af4158015610e6f573d6000803e3d6000fd5b505050506040513d601f19601f82011682018060405250810190610e939190615430565b838381518110610ea557610ea56156e5565b6020026020010181905250508080610ebc90615930565b915050610df1565b610ecc613859565b60405163a8d8fff560e01b815260009073C6877b65c58200E0da3C68c151ad48dC4783b1349063a8d8fff590610f089088908790600401615949565b608060405180830381865af4158015610f25573d6000803e3d6000fd5b505050506040513d601f19601f82011682018060405250810190610f499190615963565b90506000610f5a8683876001611975565b90506000610f6b8784886000611975565b9050600073528Caa4A484ca9ecA6498BCc2b4930aab8eE268A6310366e3589866040518363ffffffff1660e01b8152600401610fa8929190615ab0565b61010060405180830381865af4158015610fc6573d6000803e3d6000fd5b505050506040513d601f19601f82011682018060405250810190610fea9190615b0d565b9050600073528Caa4A484ca9ecA6498BCc2b4930aab8eE268A630dc7f3eb8a878b6040518463ffffffff1660e01b815260040161102993929190615b4d565b61014060405180830381865af4158015611047573d6000803e3d6000fd5b505050506040513d601f19601f8201168201806040525081019061106b9190615b78565b905060006110798a87611b62565b905060008a6001600160a01b0316637ae1cfca6110998960000151611bb6565b6040518263ffffffff1660e01b81526004016110b791815260200190565b602060405180830381865afa1580156110d4573d6000803e3d6000fd5b505050506040513d601f19601f820116820180604052508101906110f89190615bc9565b6040805160e0810182529889526020890197909752958701949094526060860192909252608085015260a084015250151560c082015290505b9392505050565b60008073C6877b65c58200E0da3C68c151ad48dC4783b13463a8d8fff588886040518363ffffffff1660e01b8152600401611174929190615949565b608060405180830381865af4158015611191573d6000803e3d6000fd5b505050506040513d601f19601f820116820180604052508101906111b59190615963565b90506111c48782878787611c39565b979650505050505050565b600061077e8686868686611c7d565b6111e6613832565b6040516329bc01e160e11b815273C6877b65c58200E0da3C68c151ad48dC4783b1349063537803c290610d449086908690600401615417565b600080600080736054160c4AB083Bd523588Bce7DC0396437d98fE63fdfc26f38a886040518363ffffffff1660e01b815260040161125e929190615417565b6101a060405180830381865af415801561127c573d6000803e3d6000fd5b505050506040513d601f19601f820116820180604052508101906112a09190615430565b60405163e22de79360e01b815290915073987CC851556d209d88323e4A29ddBE2F8a6D7b4C9063e22de793906112e2908c908c908c9087908c90600401615be6565b606060405180830381865af41580156112ff573d6000803e3d6000fd5b505050506040513d601f19601f820116820180604052508101906113239190615c50565b93509350935050955095509592505050565b60606000611344868585611ca8565b9050600081516001600160401b0381111561136157611361613ace565b60405190808252806020026020018201604052801561139a57816020015b611387613859565b81526020019060019003908161137f5790505b50905060005b8251811015610a415760008782815181106113bd576113bd6156e5565b6020026020010151905060008483815181106113db576113db6156e5565b602002602001015190506113f08a8383610ec4565b848481518110611402576114026156e5565b60200260200101819052505050808061141a90615930565b9150506113a0565b60606000611431858585611ca8565b9050600081516001600160401b0381111561144e5761144e613ace565b60405190808252806020026020018201604052801561148757816020015b611474613832565b81526020019060019003908161146c5790505b50905060005b82518110156115655760008382815181106114aa576114aa6156e5565b60200260200101519050600073C6877b65c58200E0da3C68c151ad48dC4783b13463a8d8fff58a846040518363ffffffff1660e01b81526004016114ef929190615949565b608060405180830381865af415801561150c573d6000803e3d6000fd5b505050506040513d601f19601f820116820180604052508101906115309190615963565b905080848481518110611545576115456156e5565b60200260200101819052505050808061155d90615930565b91505061148d565b5095945050505050565b6115776138ae565b60405163fdfc26f360e01b8152738bB337EF1D6e1B8AEab95b24cC267255a39552509063fdfc26f3906115b09086908690600401615417565b600060405180830381865af41580156115cd573d6000803e3d6000fd5b505050506040513d6000823e601f3d908101601f191682016040526106e09190810190615c7e565b6060600084516001600160401b0381111561161257611612613ace565b60405190808252806020026020018201604052801561164b57816020015b6116386135e0565b8152602001906001900390816116305790505b50905060005b85518110156116d357600086828151811061166e5761166e6156e5565b602002602001015190506116a2898983898681518110611690576116906156e5565b602002602001015160008a60016104d0565b8383815181106116b4576116b46156e5565b60200260200101819052505080806116cb90615930565b915050611651565b509695505050505050565b600061078185858585611d63565b6000806117026116fd888887611d92565b611de5565b90506000611711888887611e58565b905081158061171e575080155b1561172e57600092505050610781565b600061173b878787611e9f565b9050600061174c6116fd8385615da6565b90506000876117645761175f8286615dbd565b61176e565b61176e8583615dbd565b9b9a5050505050505050505050565b6000836001600160a01b031663bd02d0f56117988585611ed8565b6040518263ffffffff1660e01b81526004016117b691815260200190565b602060405180830381865afa1580156117d3573d6000803e3d6000fd5b505050506040513d601f19601f82011682018060405250810190610a469190615de4565b6117ff613832565b60405163a8d8fff560e01b815260009073C6877b65c58200E0da3C68c151ad48dC4783b1349063a8d8fff59061183b9087908790600401615949565b608060405180830381865af4158015611858573d6000803e3d6000fd5b505050506040513d601f19601f8201168201806040525081019061187c9190615963565b90506106e08482611f62565b60008060008061189c898989896001611c39565b905060006118b08a878b600001518a61203b565b9050600080831380156118ca5750816118c8846120b6565b115b9b929a50909850909650505050505050565b6060846001600160a01b031663f069052a6118f686612108565b85856040518463ffffffff1660e01b8152600401611916939291906149d2565b600060405180830381865afa158015611933573d6000803e3d6000fd5b505050506040513d6000823e601f3d908101601f191682016040526107819190810190615dfd565b6060846001600160a01b031663f069052a6118f686612140565b6000806119848686868661217b565b905080600003611998576000915050610a46565b6000866001600160a01b0316637ae1cfca6040516020016119f69060208082526023908201527f534b49505f424f52524f57494e475f4645455f464f525f534d414c4c45525f5360408201526249444560e81b606082015260800190565b604051602081830303815290604052805190602001206040518263ffffffff1660e01b8152600401611a2a91815260200190565b602060405180830381865afa158015611a47573d6000803e3d6000fd5b505050506040513d601f19601f82011682018060405250810190611a6b9190615bc9565b90508015611ad3576000611a8188886001611d92565b90506000611a9189896000611d92565b9050858015611a9f57508082105b15611ab1576000945050505050610a46565b85158015611abe57508181105b15611ad0576000945050505050610a46565b50505b6000611ae38888888860006121b7565b905080600003611b0657604051630d5f5aef60e31b815260040160405180910390fd5b6000611b1789896000015188612230565b90506000611b25858361224b565b90506000611b3382856122aa565b90506000611b468c8c600001518b6122b8565b9050611b5282826122d3565b9c9b505050505050505050505050565b611b6a613811565b600080611b7b8585600001516122ec565b92509250506000611b90868660200151612484565b604080516060810182529586526020860194909452928401929092525090949350505050565b6000604051602001611bee906020808252601290820152711254d7d3505492d15517d11254d05093115160721b604082015260600190565b60408051601f198184030181528282528051602091820120908301526001600160a01b038416908201526060015b604051602081830303815290604052805190602001209050919050565b600080611c4a8787878787156121b7565b905080600003611c5e576000915050610781565b6000611c718888886000015188886116ec565b905061055d818361259a565b600080611c8b878786611d92565b90506000611c9c88888888886116ec565b905061055d82826125d9565b6060836001600160a01b031663e7e4148e604051602001611ce8906020808252600b908201526a13505492d15517d31254d560aa1b604082015260600190565b6040516020818303038152906040528051906020012085856040518463ffffffff1660e01b8152600401611d1e939291906149d2565b600060405180830381865afa158015611d3b573d6000803e3d6000fd5b505050506040513d6000823e601f3d908101601f19168201604052610a469190810190615e82565b600080611d748686866001876116ec565b90506000611d868787876000886116ec565b90506111c48183615eb6565b600080611da7846040015185606001516125ef565b90506000611dc08686600001518760400151878661261e565b90506000611dd98787600001518860600151888761261e565b90506111c48183615ede565b60006001600160ff1b03821115611e545760405162461bcd60e51b815260206004820152602860248201527f53616665436173743a2076616c756520646f65736e27742066697420696e2061604482015267371034b73a191a9b60c11b60648201526084015b60405180910390fd5b5090565b600080611e6d846040015185606001516125ef565b90506000611e86868660000151876040015187866126a4565b90506000611dd9878760000151886060015188876126a4565b60008215611ec05781611eb3578351611eb9565b83602001515b9050611131565b81611ecf578360200151610a46565b50509051919050565b6000604051602001611f0e9060208082526010908201526f4c41544553545f41444c5f424c4f434b60801b604082015260600190565b60408051601f198184030181528282528051602091820120908301526001600160a01b0385169082015282151560608201526080015b60405160208183030381529060405280519060200120905092915050565b80516001600160a01b0316611f8a576040516302fde0d760e11b815260040160405180910390fd5b6000826001600160a01b0316637ae1cfca611fa88460000151611bb6565b6040518263ffffffff1660e01b8152600401611fc691815260200190565b602060405180830381865afa158015611fe3573d6000803e3d6000fd5b505050506040513d601f19601f820116820180604052508101906120079190615bc9565b905080156120365781516040516309f8c93760e01b81526001600160a01b039091166004820152602401611e4b565b505050565b6000846001600160a01b031663bd02d0f56120578686866126c1565b6040518263ffffffff1660e01b815260040161207591815260200190565b602060405180830381865afa158015612092573d6000803e3d6000fd5b505050506040513d601f19601f820116820180604052508101906107819190615de4565b600080821215611e545760405162461bcd60e51b815260206004820181905260248201527f53616665436173743a2076616c7565206d75737420626520706f7369746976656044820152606401611e4b565b6000604051602001611bee906020808252601290820152711050d0d3d5539517d3d491115497d31254d560721b604082015260600190565b6000604051602001611bee906020808252601590820152741050d0d3d5539517d413d4d2551253d397d31254d5605a1b604082015260600190565b60008082156121ac576000612191878786611e58565b8551602001519091506121a49082615da6565b915050610781565b61077e868685611d92565b600080836121c95785606001516121cf565b85604001515b905060006121de888884612750565b90506000841561220c57856121fb57866040015160200151612205565b8660200151602001515b9050612226565b8561221c57604087015151612223565b6020870151515b90505b610be08183615da6565b6000836001600160a01b031663bd02d0f561179885856127ee565b600068327cb2734119d3b7a9601e1b831015612269575060006106e3565b68327cb2734119d3b7a9601e1b82036122835750816106e3565b600061229f6122918561282d565b61229a8561282d565b61283e565b9050610a4681612880565b60006106e083836000612891565b6000836001600160a01b031663bd02d0f561179885856128d9565b60006106e0838368327cb2734119d3b7a9601e1b61290f565b600080600080856001600160a01b031663a6ed563e61230a8761291c565b6040518263ffffffff1660e01b815260040161232891815260200190565b602060405180830381865afa158015612345573d6000803e3d6000fd5b505050506040513d601f19601f820116820180604052508101906123699190615de4565b9050806123815760008060009350935093505061247d565b6001866001600160a01b031663bd02d0f561239d846001612953565b6040518263ffffffff1660e01b81526004016123bb91815260200190565b602060405180830381865afa1580156123d8573d6000803e3d6000fd5b505050506040513d601f19601f820116820180604052508101906123fc9190615de4565b876001600160a01b031663bd02d0f5612416856000612953565b6040518263ffffffff1660e01b815260040161243491815260200190565b602060405180830381865afa158015612451573d6000803e3d6000fd5b505050506040513d601f19601f820116820180604052508101906124759190615de4565b935093509350505b9250925092565b6000806000846001600160a01b031663a6ed563e6124a1866129c5565b6040518263ffffffff1660e01b81526004016124bf91815260200190565b602060405180830381865afa1580156124dc573d6000803e3d6000fd5b505050506040513d601f19601f820116820180604052508101906125009190615de4565b905080612514576000809250925050612593565b6001856001600160a01b031663dc97d96261252e846129fb565b6040518263ffffffff1660e01b815260040161254c91815260200190565b602060405180830381865afa158015612569573d6000803e3d6000fd5b505050506040513d601f19601f8201168201806040525081019061258d9190615de4565b92509250505b9250929050565b6000806125af6125a985612a67565b846122aa565b9050600084136125d0576125c281611de5565b6125cb90615ef1565b610a46565b610a4681611de5565b6000816125e584611de5565b6106e09190615eb6565b6000816001600160a01b0316836001600160a01b031614612611576001612614565b60025b60ff169392505050565b600081866001600160a01b031663bd02d0f561263b888888612a7a565b6040518263ffffffff1660e01b815260040161265991815260200190565b602060405180830381865afa158015612676573d6000803e3d6000fd5b505050506040513d601f19601f8201168201806040525081019061269a9190615de4565b61077e9190615f23565b600081866001600160a01b031663bd02d0f561263b888888612af2565b60006040516020016126f5906020808252600e908201526d26a0ac2fa827262fa320a1aa27a960911b604082015260600190565b60408051601f1981840301815282825280516020918201209083015281018590526001600160a01b0384166060820152821515608082015260a0015b6040516020818303038152906040528051906020012090509392505050565b600080612765846040015185606001516125ef565b905080856001600160a01b031663bd02d0f5612785876000015187612b2f565b6040518263ffffffff1660e01b81526004016127a391815260200190565b602060405180830381865afa1580156127c0573d6000803e3d6000fd5b505050506040513d601f19601f820116820180604052508101906127e49190615de4565b6107819190615f23565b6000604051602001611f0e906020808252601990820152782127a92927aba4a723afa2ac2827a722a72a2fa320a1aa27a960391b604082015260600190565b60006106e364e8d4a5100083615f23565b60008260000361286657811561285557600061285f565b670de0b6b3a76400005b90506106e3565b6106e061287b61287585612b9d565b84612c53565b612c5f565b60006106e364e8d4a5100083615da6565b6000836000036128a357506000611131565b81156128c257611eb98468327cb2734119d3b7a9601e1b856001612ca5565b610a468468327cb2734119d3b7a9601e1b85612cf6565b6000604051602001611f0e9060208082526010908201526f2127a92927aba4a723afa320a1aa27a960811b604082015260600190565b6000610a46848484612cf6565b6000604051602001611bee906020808252601190820152701592549515505317d3505492d15517d251607a1b604082015260600190565b6000604051602001612994906020808252601b908201527a5649525455414c5f494e56454e544f52595f464f525f535741505360281b604082015260600190565b60408051601f1981840301815282825280516020918201209083015281018490528215156060820152608001611f44565b6000604051602001611bee9060208082526010908201526f1592549515505317d513d2d15397d25160821b604082015260600190565b6000604051602001612a3e906020808252601f908201527f5649525455414c5f494e56454e544f52595f464f525f504f534954494f4e5300604082015260600190565b60408051601f198184030181528282528051602091820120908301528101839052606001611c1c565b600080821215611e5457816000036106e3565b6000604051602001612aad906020808252600d908201526c13d4115397d2539511549154d5609a1b604082015260600190565b60408051601f198184030181528282528051602091820120908301526001600160a01b038087169183019190915284166060820152821515608082015260a001612731565b6000604051602001612aad906020808252601790820152764f50454e5f494e5445524553545f494e5f544f4b454e5360481b604082015260600190565b6000604051602001612b60906020808252600b908201526a1413d3d317d05353d5539560aa1b604082015260600190565b60408051601f198184030181528282528051602091820120908301526001600160a01b038086169183019190915283166060820152608001611f44565b6000670de0b6b3a7640000821015612bcb57604051633621413760e21b815260048101839052602401611e4b565b6000612be0670de0b6b3a76400008404612da5565b670de0b6b3a764000081029250905082811c670de0b6b3a763ffff198101612c09575050919050565b6706f05b59d3b200005b8015612c4b57670de0b6b3a7640000828002049150671bc16d674ec800008210612c43579283019260019190911c905b60011c612c13565b505050919050565b60006106e08383612e88565b6000680a688906bd8b0000008210612c8d57604051634a4f26f160e01b815260048101839052602401611e4b565b670de0b6b3a7640000604083901b0461113181612f4e565b600080612cb3868686612cf6565b90506001836002811115612cc957612cc9614428565b148015612ce6575060008480612ce157612ce1615f0d565b868809115b156107815761077e600182615ede565b6000808060001985870985870292508281108382030391505080600003612d3057838281612d2657612d26615f0d565b0492505050611131565b808411612d3c57600080fd5b60008486880960026001871981018816978890046003810283188082028403028082028403028082028403028082028403028082028403029081029092039091026000889003889004909101858311909403939093029303949094049190911702949350505050565b6000600160801b8210612dc557608091821c91612dc29082615ede565b90505b600160401b8210612de357604091821c91612de09082615ede565b90505b600160201b8210612e0157602091821c91612dfe9082615ede565b90505b620100008210612e1e57601091821c91612e1b9082615ede565b90505b6101008210612e3a57600891821c91612e379082615ede565b90505b60108210612e5557600491821c91612e529082615ede565b90505b60048210612e7057600291821c91612e6d9082615ede565b90505b60028210612e83576106e3600182615ede565b919050565b60008080600019848609848602925082811083820303915050670de0b6b3a76400008110612ecc5760405163698d9a0160e11b815260048101829052602401611e4b565b600080670de0b6b3a764000086880991506706f05b59d3b1ffff8211905082600003612f0a5780670de0b6b3a76400008504019450505050506106e3565b620400008285030493909111909103600160ee1b02919091177faccb18165bd6fe31ae1cf318dc5b51eee0e1ba569b88cd74c1773b91fac106690201905092915050565b600160bf1b6001603f1b821615612f6e5768016a09e667f3bcc9090260401c5b6001603e1b821615612f89576801306fe0a31b7152df0260401c5b6001603d1b821615612fa4576801172b83c7d517adce0260401c5b6001603c1b821615612fbf5768010b5586cf9890f62a0260401c5b6001603b1b821615612fda576801059b0d31585743ae0260401c5b6001603a1b821615612ff557680102c9a3e778060ee70260401c5b600160391b8216156130105768010163da9fb33356d80260401c5b600160381b82161561302b57680100b1afa5abcbed610260401c5b600160371b8216156130465768010058c86da1c09ea20260401c5b600160361b821615613061576801002c605e2e8cec500260401c5b600160351b82161561307c57680100162f3904051fa10260401c5b600160341b821615613097576801000b175effdc76ba0260401c5b600160331b8216156130b257680100058ba01fb9f96d0260401c5b600160321b8216156130cd5768010002c5cc37da94920260401c5b600160311b8216156130e8576801000162e525ee05470260401c5b600160301b8216156131035768010000b17255775c040260401c5b6001602f1b82161561311e576801000058b91b5bc9ae0260401c5b6001602e1b82161561313957680100002c5c89d5ec6d0260401c5b6001602d1b8216156131545768010000162e43f4f8310260401c5b6001602c1b82161561316f57680100000b1721bcfc9a0260401c5b6001602b1b82161561318a5768010000058b90cf1e6e0260401c5b6001602a1b8216156131a5576801000002c5c863b73f0260401c5b600160291b8216156131c057680100000162e430e5a20260401c5b600160281b8216156131db576801000000b1721835510260401c5b600160271b8216156131f657680100000058b90c0b490260401c5b600160261b8216156132115768010000002c5c8601cc0260401c5b600160251b82161561322c576801000000162e42fff00260401c5b600160241b8216156132475768010000000b17217fbb0260401c5b600160231b821615613262576801000000058b90bfce0260401c5b600160221b82161561327d57680100000002c5c85fe30260401c5b600160211b8216156132985768010000000162e42ff10260401c5b600160201b8216156132b357680100000000b17217f80260401c5b63800000008216156132ce5768010000000058b90bfc0260401c5b63400000008216156132e9576801000000002c5c85fe0260401c5b632000000082161561330457680100000000162e42ff0260401c5b631000000082161561331f576801000000000b17217f0260401c5b630800000082161561333a57680100000000058b90c00260401c5b63040000008216156133555768010000000002c5c8600260401c5b6302000000821615613370576801000000000162e4300260401c5b630100000082161561338b5768010000000000b172180260401c5b628000008216156133a5576801000000000058b90c0260401c5b624000008216156133bf57680100000000002c5c860260401c5b622000008216156133d95768010000000000162e430260401c5b621000008216156133f357680100000000000b17210260401c5b6208000082161561340d5768010000000000058b910260401c5b62040000821615613427576801000000000002c5c80260401c5b6202000082161561344157680100000000000162e40260401c5b6201000082161561345a5761b172600160401b010260401c5b618000821615613472576158b9600160401b010260401c5b61400082161561348a57612c5d600160401b010260401c5b6120008216156134a25761162e600160401b010260401c5b6110008216156134ba57610b17600160401b010260401c5b6108008216156134d25761058c600160401b010260401c5b6104008216156134ea576102c6600160401b010260401c5b61020082161561350257610163600160401b010260401c5b6101008216156135195760b1600160401b010260401c5b608082161561352f576059600160401b010260401c5b604082161561354557602c600160401b010260401c5b602082161561355b576016600160401b010260401c5b601082161561357157600b600160401b010260401c5b6008821615613587576006600160401b010260401c5b600482161561359d576003600160401b010260401c5b60028216156135b3576001600160401b010260401c5b60018216156135c9576001600160401b010260401c5b670de0b6b3a76400000260409190911c60bf031c90565b6040518060c001604052806135f3613628565b81526020016136006138f6565b815260200161360d613811565b81526020016000815260200160008152602001600081525090565b6040805160c081019091526000606082018181526080830182905260a0830191909152819081526020016136a16040518061012001604052806000815260200160008152602001600081526020016000815260200160008152602001600081526020016000815260200160008152602001600081525090565b81526040805160208181019092526000815291015290565b905290565b604080516101808101909152600060608083018281526080840183905260a0840183905260c0840183905260e084018390526101008401839052610120840192909252610140830181905261016083015281905b81526020016136a16040518060c001604052806000815260200160008152602001600081526020016000815260200160008152602001600081525090565b604080516101408101909152600060608083018281526080840183905260a0840183905260c0840183905260e084018390526101008401929092526101208301528152602081016137ee60408051610140810190915280600081526020016000815260200160008152602001600081526020016000815260200160008152602001600081526020016000815260200160008152602001600081525090565b815260408051606081018252600080825260208281018290529282015291015290565b60405180606001604052806000815260200160008152602001600081525090565b60408051608081018252600080825260208201819052918101829052606081019190915290565b6040518060e0016040528061386c613832565b81526020016000815260200160008152602001613887613a3c565b8152602001613894613a5c565b81526020016138a1613811565b8152600060209091015290565b604080516101408101909152600060608083018281526080840183905260a0840183905260c0840183905260e084019290925261010083018190526101208301528190613712565b604080516102c0810190915260006101c082018181526101e08301829052610200830182905261022083018290526102408301829052610260830182905261028083018290526102a0830191909152819081526020016139856040518060c001604052806000815260200160008152602001600081526020016000815260200160008152602001600081525090565b81526020016139b56040518060800160405280600081526020016000815260200160008152602001600081525090565b815260408051606081018252600080825260208281018290529282015291019081526020016139f7604051806040016040528060008152602001600081525090565b81526020016000815260200160008152602001600081526020016000815260200160008152602001600081526020016000815260200160008152602001600081525090565b6040518060400160405280613a4f613a77565b81526020016136b9613a77565b6040805160808101825260008082526020820152908101613a4f5b604080516080810182526000918101828152606082019290925290819081526020016136b9604051806040016040528060008152602001600081525090565b6001600160a01b0381168114613acb57600080fd5b50565b634e487b7160e01b600052604160045260246000fd5b604080519081016001600160401b0381118282101715613b0657613b06613ace565b60405290565b604051606081016001600160401b0381118282101715613b0657613b06613ace565b604051608081016001600160401b0381118282101715613b0657613b06613ace565b60405161012081016001600160401b0381118282101715613b0657613b06613ace565b60405160c081016001600160401b0381118282101715613b0657613b06613ace565b6040516101c081016001600160401b0381118282101715613b0657613b06613ace565b60405161016081016001600160401b0381118282101715613b0657613b06613ace565b60405161014081016001600160401b0381118282101715613b0657613b06613ace565b60405160e081016001600160401b0381118282101715613b0657613b06613ace565b604051601f8201601f191681016001600160401b0381118282101715613c4857613c48613ace565b604052919050565b600060408284031215613c6257600080fd5b613c6a613ae4565b9050813581526020820135602082015292915050565b600060c08284031215613c9257600080fd5b613c9a613b0c565b9050613ca68383613c50565b8152613cb58360408401613c50565b6020820152613cc78360808401613c50565b604082015292915050565b8035612e8381613ab6565b8015158114613acb57600080fd5b6000806000806000806000610180888a031215613d0757600080fd5b8735613d1281613ab6565b96506020880135613d2281613ab6565b955060408801359450613d388960608a01613c80565b93506101208801359250610140880135613d5181613ab6565b9150610160880135613d6281613cdd565b8091505092959891949750929550565b6001600160a01b03169052565b80516001600160a01b03908116835260208083015182169084015260409182015116910152565b805182526020810151602083015260408101516040830152606081015160608301526080810151608083015260a081015160a083015260c081015160c083015260e081015160e08301526101008082015181840152505050565b613e0b828251613d7f565b6020810151613e1d6060840182613da6565b50604001515115156101809190910152565b805182526020810151602083015260408101516040830152606081015160608301526080810151608083015260a081015160a08301525050565b80518252602090810151910152565b8051825260208082015190830152604090810151910152565b613e9c828251613e00565b602081810151805180516101a086810191909152928101516001600160a01b039081166101c08701526040820151166101e08601526060810151610200860152608081015161022086015260a081015161024086015260c081015161026086015260e00151610280850152906020820151613f1b6102a0860182613e2f565b506040828101518051610360870152602080820151610380880152818301516103a08801526060918201516103c08801529084015180516001600160a01b03166103e08801529081015161040087015201516104208501526080820151613f86610440860182613e69565b5060a082015161048085015260c08201516104a085015260e08201516104c08501526101008201516104e085015261012082015161050085015261014082015161052085015261016082015161054085015261018082015161056085015201516105808301526040810151613fff6105a0840182613e78565b506060810151610600830152608081015161062083015260a0015161064090910152565b61066081016106e38284613e91565b60006080828403121561404457600080fd5b61404c613b2e565b9050813561405981613ab6565b8152602082013561406981613ab6565b6020820152604082013561407c81613ab6565b6040820152606082013561408f81613ab6565b606082015292915050565b60008060008060008060006101a0888a0312156140b657600080fd5b87356140c181613ab6565b96506140d08960208a01614032565b95506140df8960a08a01613c50565b94506140ee8960e08a01613c50565b93506140fe896101208a01613c50565b92506101608801359150610180880135613d6281613cdd565b6000806040838503121561412a57600080fd5b823561413581613ab6565b946020939093013593505050565b6101a081016106e38284613e00565b600081518084526020808501945080840160005b8381101561418b5781516001600160a01b031687529582019590820190600101614166565b509495945050505050565b60208152600061012083516101008060208601526141b78386018351613d72565b60208201516141ca610140870182613d72565b5060408201516141de610160870182613d72565b5060608201516141f2610180870182613d72565b5060808201516142066101a0870182613d72565b5060a082015161421a6101c0870182613d72565b5060c082015161422e6101e0870182613d72565b5060e082015183610200870152614249610240870182614152565b9282015186840361011f190161022088015292935061426a90508383614152565b9250602086015191506142806040860183613e2f565b6040860151805115158683015291505b5090949350505050565b600080600080600061012086880312156142b357600080fd5b85356142be81613ab6565b94506142cd8760208801614032565b93506142dc8760a08801613c50565b925060e08601356142ec81613cdd565b91506101008601356142fd81613cdd565b809150509295509295909350565b600080600080610120858703121561432257600080fd5b843561432d81613ab6565b9350602085013561433d81613ab6565b9250604085013561434d81613cdd565b915061435c8660608701613c80565b905092959194509250565b6000806000806000806101c0878903121561438157600080fd5b863561438c81613ab6565b955061439b8860208901614032565b94506143aa8860a08901613c80565b93506101608701356143bb81613ab6565b925061018087013591506101a08701356143d481613ab6565b809150509295509295509295565b600080600080608085870312156143f857600080fd5b843561440381613ab6565b9350602085013561441381613ab6565b93969395505050506040820135916060013590565b634e487b7160e01b600052602160045260246000fd5b6008811061444e5761444e614428565b9052565b6003811061444e5761444e614428565b61446d82825161443e565b602081015161447f6020840182614452565b5060408101516040830152606081015160608301526080810151608083015260a081015160a083015260c081015160c083015260e081015160e08301526101008082015181840152506101208082015181840152505050565b80516101c080845281516001600160a01b0390811691850191909152602082015181166101e08501526040820151166102008401526060810151600091614523610220860183613d72565b60808101519150614538610240860183613d72565b60a0810151915061454d610260860183613d72565b60c0015160e061028086015290506145696102a0850182614152565b9050602083015161457d6020860182614462565b5060408381015180511515610160870152602081015115156101808701529081015115156101a0860152509392505050565b6000602080830181845280855180835260408601915060408160051b870101925083870160005b8281101561460457603f198886030184526145f28583516144d8565b945092850192908501906001016145d6565b5092979650505050505050565b6020815260006106e060208301846144d8565b6000806000806000806000610100888a03121561464057600080fd5b873561464b81613ab6565b9650602088013561465b81613ab6565b955061466a8960408a01613c50565b94506080880135935060a0880135925060c0880135915060e0880135613d6281613cdd565b606081016106e38284613e78565b6000806000806000806000610120888a0312156146b957600080fd5b87356146c481613ab6565b965060208801356146d481613ab6565b955060408801356146e481613ab6565b945060608801356146f481613ab6565b93506080880135925061470a8960a08a01613c50565b91506147198960e08a01613c50565b905092959891949750929550565b6000806040838503121561473a57600080fd5b823561474581613ab6565b9150602083013561475581613ab6565b809150509250929050565b80516001600160a01b03908116835260208083015182169084015260408083015182169084015260609182015116910152565b608081016106e38284614760565b6020808252825182820181905260009190848201906040850190845b818110156147e4576147d0838551613e00565b928401926101a092909201916001016147bd565b50909695505050505050565b6000806000610100848603121561480657600080fd5b833561481181613ab6565b92506148208560208601613c80565b915060e084013561483081613ab6565b809150509250925092565b614846828251613e69565b60208101516120366040840182613e69565b614863828251614760565b60208101516080830152604081015160a0830152606081015161488a60c08401825161483b565b6020015161489c61014084018261483b565b506080810151805115156101c084015260208101516101e084015260408101516148ca61020085018261483b565b50606001516148dd61028084018261483b565b5060a08101516148f1610300840182613e78565b5060c0015115156103609190910152565b61038081016106e38284614858565b6000806000806000610140868803121561492a57600080fd5b853561493581613ab6565b9450602086013561494581613ab6565b93506149548760408801613c80565b925061010086013561496581613cdd565b91506101208601356142fd81613cdd565b60008060008060006101a0868803121561498f57600080fd5b853561499a81613ab6565b94506149a98760208801614032565b93506149b88760a08801613c80565b949793965093946101608101359450610180013592915050565b9283526020830191909152604082015260600190565b60006001600160401b03821115614a0157614a01613ace565b5060051b60200190565b600082601f830112614a1c57600080fd5b81356020614a31614a2c836149e8565b613c20565b82815260c09283028501820192828201919087851115614a5057600080fd5b8387015b85811015614a7357614a668982613c80565b8452928401928101614a54565b5090979650505050505050565b60008060008060808587031215614a9657600080fd5b8435614aa181613ab6565b935060208501356001600160401b03811115614abc57600080fd5b614ac887828801614a0b565b949794965050505060408301359260600135919050565b6020808252825182820181905260009190848201906040850190845b818110156147e457614b0e838551614858565b928401926103809290920191600101614afb565b600080600060608486031215614b3757600080fd5b8335614b4281613ab6565b95602085013595506040909401359392505050565b6020808252825182820181905260009190848201906040850190845b818110156147e457614b86838551614760565b9284019260809290920191600101614b73565b602081526000825161010080602085015260018060a01b03808351166101208601528060208401511661014086015280604084015116610160860152506060820151614be9610180860182613d72565b506080820151614bfd6101a0860182613d72565b5060a082015160e06101c0860152614c19610200860182614152565b905060c0830151925061011f19858203016101e0860152614c3a8184614152565b9250506020850151614c4f6040860182613e2f565b5060408501518051151585830152614290565b600080600080600060a08688031215614c7a57600080fd5b8535614c8581613ab6565b9450602086810135614c9681613ab6565b945060408701356001600160401b0380821115614cb257600080fd5b818901915089601f830112614cc657600080fd5b8135614cd4614a2c826149e8565b81815260059190911b8301840190848101908c831115614cf357600080fd5b938501935b82851015614d1157843582529385019390850190614cf8565b975050506060890135925080831115614d2957600080fd5b5050614d3788828901614a0b565b925050614d4660808701613cd2565b90509295509295909350565b6020808252825182820181905260009190848201906040850190845b818110156147e457614d81838551613e91565b928401926106609290920191600101614d6e565b6000806000806101008587031215614dac57600080fd5b8435614db781613ab6565b9350614dc68660208701614032565b9250614dd58660a08701613c50565b915060e0850135614de581613cdd565b939692955090935050565b614dfb828251613e69565b6020810151614e0d6040840182613e69565b5060408101516120366080840182613e69565b6001600160a01b038881168252878116602083015260408201879052610180820190614e4f6060840188614df0565b856101208401528085166101408401525082151561016083015298975050505050505050565b8051612e8381613ab6565b600060208284031215614e9257600080fd5b604051602081016001600160401b0381118282101715614eb457614eb4613ace565b80604052508091508251614ec781613cdd565b905292915050565b60008183036101a0811215614ee357600080fd5b614eeb613b0c565b91506060811215614efb57600080fd5b614f03613b0c565b8351614f0e81613ab6565b81526020840151614f1e81613ab6565b60208201526040840151614f3181613ab6565b60408201528252610120605f198201811315614f4c57600080fd5b614f54613b50565b9150606084015182526080840151602083015260a0840151604083015260c0840151606083015260e084015160808301526101008085015160a08401528185015160c084015261014085015160e084015261016085015181840152505080602083015250613cc7836101808401614e80565b6000610100808385031215614fda57600080fd5b604051908101906001600160401b0382118183101715614ffc57614ffc613ace565b81604052809250835181526020840151915061501782613ab6565b81602082015261502960408501614e75565b6040820152606084015160608201526080840151608082015260a084015160a082015260c084015160c082015260e084015160e0820152505092915050565b600060c0828403121561507a57600080fd5b615082613b73565b9050815181526020820151602082015260408201516040820152606082015160608201526080820151608082015260a082015160a082015292915050565b6000608082840312156150d257600080fd5b6150da613b2e565b90508151815260208201516020820152604082015160408201526060820151606082015292915050565b60006060828403121561511657600080fd5b61511e613b0c565b9050815161512b81613ab6565b80825250602082015160208201526040820151604082015292915050565b60006040828403121561515b57600080fd5b615163613ae4565b9050815181526020820151602082015292915050565b60006060828403121561518b57600080fd5b615193613b0c565b905081518152602082015160208201526040820151604082015292915050565b60008183036106608112156151c757600080fd5b6151cf613b73565b6151d98585614ecf565b81526101a061040061019f19840112156151f257600080fd5b6151fa613b95565b925061520886828701614fc6565b8352615218866102a08701615068565b602084015261522b8661036087016150c0565b604084015261523e866103e08701615104565b6060840152615251866104408701615149565b608084015261048085015160a08401526104a085015160c08401526104c085015160e08401526104e085015161010084015261050085015161012084015261052085015161014084015261054085015161016084015261056085015161018084015261058085015181840152508160208201526152d2856105a08601615179565b6040820152610600840151606082015261062084015160808201526106409093015160a0840152509092915050565b6001600160a01b03881681526101a0810161531f6020830189614760565b61532c60a0830188613e69565b61533960e0830187613e69565b615347610120830186613e69565b8361016083015282151561018083015298975050505050505050565b60008082840361018081121561537857600080fd5b8351925061016080601f198301121561539057600080fd5b615398613bb8565b91506020850151825260408501516020830152606085015160408301526080850151606083015260a0850151608083015260c085015160a083015260e085015160c08301526101008086015160e08401526101208087015182850152610140915081870151818501525081860151818401525050809150509250929050565b6001600160a01b03929092168252602082015260400190565b60006101a0828403121561544357600080fd5b6106e08383614ecf565b600082601f83011261545e57600080fd5b8151602061546e614a2c836149e8565b82815260059290921b8401810191818101908684111561548d57600080fd5b8286015b848110156116d35780516154a481613ab6565b8352918301918301615491565b6000602082840312156154c357600080fd5b81516001600160401b03808211156154da57600080fd5b81840191506101008083870312156154f157600080fd5b6154f9613b0c565b83518381111561550857600080fd5b8401610120818903121561551b57600080fd5b615523613b50565b61552c82614e75565b815261553a60208301614e75565b602082015261554b60408301614e75565b604082015261555c60608301614e75565b606082015261556d60808301614e75565b608082015261557e60a08301614e75565b60a082015261558f60c08301614e75565b60c082015260e0820151858111156155a657600080fd5b6155b28a82850161544d565b60e08301525083820151858111156155c957600080fd5b6155d58a82850161544d565b82860152508252506155ea8760208601615068565b60208201526155fc8760e08601614e80565b60408201529695505050505050565b6001600160a01b0387811682526101c082019061562b6020840189614760565b61563860a0840188614df0565b808616610160840152846101808401528084166101a084015250979650505050505050565b600080600083850361010081121561567457600080fd5b845193506020850151925060c0603f198201121561569157600080fd5b5061569a613b73565b60408501518152606085015160208201526080850151604082015260a08501516156c381613ab6565b606082015260c0850151608082015260e09094015160a0850152509093909250565b634e487b7160e01b600052603260045260246000fd5b805160088110612e8357600080fd5b805160038110612e8357600080fd5b6000610140828403121561572c57600080fd5b615734613bdb565b905061573f826156fb565b815261574d6020830161570a565b602082015260408201516040820152606082015160608201526080820151608082015260a082015160a082015260c082015160c082015260e082015160e082015261010080830151818301525061012080830151818301525092915050565b6000606082840312156157be57600080fd5b6157c6613b0c565b905081516157d381613cdd565b815260208201516157e381613cdd565b60208201526040820151613cc781613cdd565b60006020828403121561580857600080fd5b81516001600160401b038082111561581f57600080fd5b908301906101c0828603121561583457600080fd5b61583c613b0c565b82518281111561584b57600080fd5b830160e0818803121561585d57600080fd5b615865613bfe565b61586e82614e75565b815261587c60208301614e75565b602082015261588d60408301614e75565b604082015261589e60608301614e75565b60608201526158af60808301614e75565b60808201526158c060a08301614e75565b60a082015260c0820151848111156158d757600080fd5b6158e38982850161544d565b60c0830152508252506158f98660208501615719565b602082015261590c8661016085016157ac565b604082015295945050505050565b634e487b7160e01b600052601160045260246000fd5b6000600182016159425761594261591a565b5060010190565b6001600160a01b0392831681529116602082015260400190565b60006080828403121561597557600080fd5b61597d613b2e565b825161598881613ab6565b8152602083015161599881613ab6565b602082015260408301516159ab81613ab6565b604082015260608301516159be81613ab6565b60608201529392505050565b6001600160a01b038816815261016081016159e86020830189614760565b6159f560a0830188613e69565b8560e0830152846101008301528361012083015282151561014083015298975050505050505050565b600060608284031215615a3057600080fd5b6106e08383615179565b6001600160a01b038881168252610180820190615a5a602084018a614760565b87811660a0840152861660c083015260e08201859052615a7e610100830185613e69565b61055d610140830184613e69565b60008060408385031215615a9f57600080fd5b505080516020909101519092909150565b6001600160a01b038316815260a081016111316020830184614760565b600060808284031215615adf57600080fd5b615ae7613ae4565b9050615af38383615149565b8152615b028360408401615149565b602082015292915050565b60006101008284031215615b2057600080fd5b615b28613ae4565b615b328484615acd565b8152615b418460808501615acd565b60208201529392505050565b6001600160a01b03841681526101608101615b6b6020830185614760565b610a4660a0830184614df0565b60006101408284031215615b8b57600080fd5b615b93613b2e565b8251615b9e81613cdd565b815260208381015190820152615bb78460408501615acd565b60408201526159be8460c08501615acd565b600060208284031215615bdb57600080fd5b81516106e081613cdd565b6001600160a01b03861681526103208101615c046020830187614760565b615c1160a0830186614df0565b615c2061016083018551613d7f565b6020840151615c336101c0840182613da6565b50604093909301515115156102e082015261030001529392505050565b600080600060608486031215615c6557600080fd5b8351925060208401519150604084015190509250925092565b600060208284031215615c9057600080fd5b81516001600160401b0380821115615ca757600080fd5b908301906101008286031215615cbc57600080fd5b615cc4613b0c565b825182811115615cd357600080fd5b830160e08188031215615ce557600080fd5b615ced613bfe565b615cf682614e75565b8152615d0460208301614e75565b6020820152615d1560408301614e75565b6040820152615d2660608301614e75565b6060820152615d3760808301614e75565b608082015260a082015184811115615d4e57600080fd5b615d5a8982850161544d565b60a08301525060c082015184811115615d7257600080fd5b615d7e8982850161544d565b60c083015250825250615d948660208501615068565b602082015261590c8660e08501614e80565b80820281158282048414176106e3576106e361591a565b8181036000831280158383131683831282161715615ddd57615ddd61591a565b5092915050565b600060208284031215615df657600080fd5b5051919050565b60006020808385031215615e1057600080fd5b82516001600160401b03811115615e2657600080fd5b8301601f81018513615e3757600080fd5b8051615e45614a2c826149e8565b81815260059190911b82018301908381019087831115615e6457600080fd5b928401925b828410156111c457835182529284019290840190615e69565b600060208284031215615e9457600080fd5b81516001600160401b03811115615eaa57600080fd5b610a468482850161544d565b8082018281126000831280158216821582161715615ed657615ed661591a565b505092915050565b808201808211156106e3576106e361591a565b6000600160ff1b8201615f0657615f0661591a565b5060000390565b634e487b7160e01b600052601260045260246000fd5b600082615f4057634e487b7160e01b600052601260045260246000fd5b50049056fea2646970667358221220c48c37018ee09e9a750847f282e4ce02957cce1b22ce85201b809bded115a50b64736f6c63430008120033",
  "deployedBytecode": "0x608060405234801561001057600080fd5b506004361061011d5760003560e01c80630815bce114610122578063095ce6c51461014b5780630fa8f516146101f45780631485d2971461021457806324c029e0146102345780632b17b4fd14610255578063409f37c71461028857806342a6f8d3146102fa57806349651b6a1461031a5780635d2b44f91461033a5780635d5c6efe1461035a578063714af34b1461038257806377cfb162146103a2578063847bb469146103c2578063971de27d146103e2578063a0140938146103f5578063a4f0d55014610408578063b4976dae1461041b578063bc7b5bba1461043d578063ce3264bf1461045d578063ceeea3bf1461047d578063ece9e0c81461049d578063fd50649d146104bd575b600080fd5b610135610130366004613ceb565b6104d0565b6040516101429190614023565b60405180910390f35b61015e61015936600461409a565b610569565b60405161014292919060006101808201905083825282516020830152602083015160408301526040830151606083015260608301516080830152608083015160a083015260a083015160c083015260c083015160e083015260e083015161010081818501528085015191505061012081818501528085015191505061014081818501528085015161016085015250509392505050565b610207610202366004614117565b61065d565b6040516101429190614143565b610227610222366004614117565b6106e9565b6040516101429190614196565b61024761024236600461429a565b61076f565b604051908152602001610142565b61026861026336600461430b565b61078a565b604080519485529215156020850152918301526060820152608001610142565b61029b610296366004614367565b610825565b604080519384526020808501939093528151848201529181015160608085019190915291810151608080850191909152918101516001600160a01b031660a0808501919091529181015160c0840152015160e082015261010001610142565b61030d6103083660046143e2565b6108ff565b60405161014291906145af565b61032d610328366004614117565b610a4e565b6040516101429190614611565b61034d610348366004614624565b610ad4565b604051610142919061468f565b61036d61036836600461469d565b610bed565b60408051928352602083019190915201610142565b610395610390366004614727565b610d03565b6040516101429190614793565b6103b56103b03660046143e2565b610d85565b60405161014291906147a1565b6103d56103d03660046147f0565b610ec4565b6040516101429190614902565b6102476103f0366004614911565b611138565b61024761040336600461429a565b6111cf565b610395610416366004614117565b6111de565b61042e610429366004614976565b61121f565b604051610142939291906149d2565b61045061044b366004614a80565b611335565b6040516101429190614adf565b61047061046b366004614b22565b611422565b6040516101429190614b57565b61049061048b366004614117565b61156f565b6040516101429190614b99565b6104b06104ab366004614c62565b6115f5565b6040516101429190614d52565b6102476104cb366004614d95565b6116de565b6104d86135e0565b6040516306bc109960e31b815273__$7d62b333171909e88f9935bee8a07b01ad$__906335e084c89061051b908b908b908b908b908b908b908b90600401614e20565b61066060405180830381865af4158015610539573d6000803e3d6000fd5b505050506040513d601f19601f8201168201806040525081019061055d91906151b3565b98975050505050505050565b60006105c860405180610160016040528060008152602001600081526020016000815260200160008152602001600081526020016000815260200160008152602001600081526020016000815260200160008152602001600081525090565b604051637d494dc360e01b815273__$e53db83827f4e07ebc418caf7145b8c2d5$__90637d494dc39061060b908c908c908c908c908c908c908c90600401615301565b61018060405180830381865af4158015610629573d6000803e3d6000fd5b505050506040513d601f19601f8201168201806040525081019061064d9190615363565b9150915097509795505050505050565b610665613628565b60405163fdfc26f360e01b815273__$3d31b232fb363902662fbc281b11ab3357$__9063fdfc26f39061069e9086908690600401615417565b6101a060405180830381865af41580156106bc573d6000803e3d6000fd5b505050506040513d601f19601f820116820180604052508101906106e09190615430565b90505b92915050565b6106f16136be565b60405163fdfc26f360e01b815273__$b63e253a228f0e32f671cc49c7fc32477c$__9063fdfc26f39061072a9086908690600401615417565b600060405180830381865af4158015610747573d6000803e3d6000fd5b505050506040513d6000823e601f3d908101601f191682016040526106e091908101906154b1565b600061077e86868686866116ec565b90505b95945050505050565b600080600080600061079d89898961177d565b905060006107ab8a8a6117f7565b9050600080600061080e8d858c8e6040516020016107f39060208082526016908201527513505617d4139317d19050d513d497d193d497d0511360521b604082015260600190565b60405160208183030381529060405280519060200120611888565b969f919e509c50949a509398505050505050505050565b60008061086a6040518060c0016040528060008152602001600081526020016000815260200160006001600160a01b0316815260200160008152602001600081525090565b60405163dafa66bf60e01b815273__$ae023ddda47a46a9af6ec057a2ebe54454$__9063dafa66bf906108ab908c908c908c908c908c908c9060040161560b565b61010060405180830381865af41580156108c9573d6000803e3d6000fd5b505050506040513d601f19601f820116820180604052508101906108ed919061565d565b92509250925096509650969350505050565b6060600061090f868686866118dc565b9050600081516001600160401b0381111561092c5761092c613ace565b60405190808252806020026020018201604052801561096557816020015b610952613750565b81526020019060019003908161094a5790505b50905060005b8251811015610a41576000838281518110610988576109886156e5565b6020026020010151905073__$9dcb75ef0bb6c4288f2ccffe7dc492c4eb$__63fdfc26f38a836040518363ffffffff1660e01b81526004016109cb929190615417565b600060405180830381865af41580156109e8573d6000803e3d6000fd5b505050506040513d6000823e601f3d908101601f19168201604052610a1091908101906157f6565b838381518110610a2257610a226156e5565b6020026020010181905250508080610a3990615930565b91505061096b565b509150505b949350505050565b610a56613750565b60405163fdfc26f360e01b815273__$9dcb75ef0bb6c4288f2ccffe7dc492c4eb$__9063fdfc26f390610a8f9086908690600401615417565b600060405180830381865af4158015610aac573d6000803e3d6000fd5b505050506040513d6000823e601f3d908101601f191682016040526106e091908101906157f6565b610adc613811565b60405163a8d8fff560e01b815260009073__$ff439aa65a80c9eec648f15db20b189505$__9063a8d8fff590610b18908c908c90600401615949565b608060405180830381865af4158015610b35573d6000803e3d6000fd5b505050506040513d601f19601f82011682018060405250810190610b599190615963565b604051630a37d4c760e11b815290915073__$ae023ddda47a46a9af6ec057a2ebe54454$__9063146fa98e90610b9f908c9085908c908c908c908c908c906004016159ca565b606060405180830381865af4158015610bbc573d6000803e3d6000fd5b505050506040513d601f19601f82011682018060405250810190610be09190615a1e565b9998505050505050505050565b600080600073__$ff439aa65a80c9eec648f15db20b189505$__63a8d8fff58b8b6040518363ffffffff1660e01b8152600401610c2b929190615949565b608060405180830381865af4158015610c48573d6000803e3d6000fd5b505050506040513d601f19601f82011682018060405250810190610c6c9190615963565b6040516340f5d44f60e11b815290915073__$ae023ddda47a46a9af6ec057a2ebe54454$__906381eba89e90610cb2908d9085908d908d908d908d908d90600401615a3a565b6040805180830381865af4158015610cce573d6000803e3d6000fd5b505050506040513d601f19601f82011682018060405250810190610cf29190615a8c565b925092505097509795505050505050565b610d0b613832565b60405163a8d8fff560e01b815273__$ff439aa65a80c9eec648f15db20b189505$__9063a8d8fff590610d449086908690600401615949565b608060405180830381865af4158015610d61573d6000803e3d6000fd5b505050506040513d601f19601f820116820180604052508101906106e09190615963565b60606000610d958686868661195b565b9050600081516001600160401b03811115610db257610db2613ace565b604051908082528060200260200182016040528015610deb57816020015b610dd8613628565b815260200190600190039081610dd05790505b50905060005b8251811015610a41576000838281518110610e0e57610e0e6156e5565b6020026020010151905073__$3d31b232fb363902662fbc281b11ab3357$__63fdfc26f38a836040518363ffffffff1660e01b8152600401610e51929190615417565b6101a060405180830381865af4158015610e6f573d6000803e3d6000fd5b505050506040513d601f19601f82011682018060405250810190610e939190615430565b838381518110610ea557610ea56156e5565b6020026020010181905250508080610ebc90615930565b915050610df1565b610ecc613859565b60405163a8d8fff560e01b815260009073__$ff439aa65a80c9eec648f15db20b189505$__9063a8d8fff590610f089088908790600401615949565b608060405180830381865af4158015610f25573d6000803e3d6000fd5b505050506040513d601f19601f82011682018060405250810190610f499190615963565b90506000610f5a8683876001611975565b90506000610f6b8784886000611975565b9050600073__$7d62b333171909e88f9935bee8a07b01ad$__6310366e3589866040518363ffffffff1660e01b8152600401610fa8929190615ab0565b61010060405180830381865af4158015610fc6573d6000803e3d6000fd5b505050506040513d601f19601f82011682018060405250810190610fea9190615b0d565b9050600073__$7d62b333171909e88f9935bee8a07b01ad$__630dc7f3eb8a878b6040518463ffffffff1660e01b815260040161102993929190615b4d565b61014060405180830381865af4158015611047573d6000803e3d6000fd5b505050506040513d601f19601f8201168201806040525081019061106b9190615b78565b905060006110798a87611b62565b905060008a6001600160a01b0316637ae1cfca6110998960000151611bb6565b6040518263ffffffff1660e01b81526004016110b791815260200190565b602060405180830381865afa1580156110d4573d6000803e3d6000fd5b505050506040513d601f19601f820116820180604052508101906110f89190615bc9565b6040805160e0810182529889526020890197909752958701949094526060860192909252608085015260a084015250151560c082015290505b9392505050565b60008073__$ff439aa65a80c9eec648f15db20b189505$__63a8d8fff588886040518363ffffffff1660e01b8152600401611174929190615949565b608060405180830381865af4158015611191573d6000803e3d6000fd5b505050506040513d601f19601f820116820180604052508101906111b59190615963565b90506111c48782878787611c39565b979650505050505050565b600061077e8686868686611c7d565b6111e6613832565b6040516329bc01e160e11b815273__$ff439aa65a80c9eec648f15db20b189505$__9063537803c290610d449086908690600401615417565b60008060008073__$3d31b232fb363902662fbc281b11ab3357$__63fdfc26f38a886040518363ffffffff1660e01b815260040161125e929190615417565b6101a060405180830381865af415801561127c573d6000803e3d6000fd5b505050506040513d601f19601f820116820180604052508101906112a09190615430565b60405163e22de79360e01b815290915073__$91a1a7f12f728c8759f4be979bae55555f$__9063e22de793906112e2908c908c908c9087908c90600401615be6565b606060405180830381865af41580156112ff573d6000803e3d6000fd5b505050506040513d601f19601f820116820180604052508101906113239190615c50565b93509350935050955095509592505050565b60606000611344868585611ca8565b9050600081516001600160401b0381111561136157611361613ace565b60405190808252806020026020018201604052801561139a57816020015b611387613859565b81526020019060019003908161137f5790505b50905060005b8251811015610a415760008782815181106113bd576113bd6156e5565b6020026020010151905060008483815181106113db576113db6156e5565b602002602001015190506113f08a8383610ec4565b848481518110611402576114026156e5565b60200260200101819052505050808061141a90615930565b9150506113a0565b60606000611431858585611ca8565b9050600081516001600160401b0381111561144e5761144e613ace565b60405190808252806020026020018201604052801561148757816020015b611474613832565b81526020019060019003908161146c5790505b50905060005b82518110156115655760008382815181106114aa576114aa6156e5565b60200260200101519050600073__$ff439aa65a80c9eec648f15db20b189505$__63a8d8fff58a846040518363ffffffff1660e01b81526004016114ef929190615949565b608060405180830381865af415801561150c573d6000803e3d6000fd5b505050506040513d601f19601f820116820180604052508101906115309190615963565b905080848481518110611545576115456156e5565b60200260200101819052505050808061155d90615930565b91505061148d565b5095945050505050565b6115776138ae565b60405163fdfc26f360e01b815273__$3dc24d71d6ebafc0c4ce8ac2f69cd1548a$__9063fdfc26f3906115b09086908690600401615417565b600060405180830381865af41580156115cd573d6000803e3d6000fd5b505050506040513d6000823e601f3d908101601f191682016040526106e09190810190615c7e565b6060600084516001600160401b0381111561161257611612613ace565b60405190808252806020026020018201604052801561164b57816020015b6116386135e0565b8152602001906001900390816116305790505b50905060005b85518110156116d357600086828151811061166e5761166e6156e5565b602002602001015190506116a2898983898681518110611690576116906156e5565b602002602001015160008a60016104d0565b8383815181106116b4576116b46156e5565b60200260200101819052505080806116cb90615930565b915050611651565b509695505050505050565b600061078185858585611d63565b6000806117026116fd888887611d92565b611de5565b90506000611711888887611e58565b905081158061171e575080155b1561172e57600092505050610781565b600061173b878787611e9f565b9050600061174c6116fd8385615da6565b90506000876117645761175f8286615dbd565b61176e565b61176e8583615dbd565b9b9a5050505050505050505050565b6000836001600160a01b031663bd02d0f56117988585611ed8565b6040518263ffffffff1660e01b81526004016117b691815260200190565b602060405180830381865afa1580156117d3573d6000803e3d6000fd5b505050506040513d601f19601f82011682018060405250810190610a469190615de4565b6117ff613832565b60405163a8d8fff560e01b815260009073__$ff439aa65a80c9eec648f15db20b189505$__9063a8d8fff59061183b9087908790600401615949565b608060405180830381865af4158015611858573d6000803e3d6000fd5b505050506040513d601f19601f8201168201806040525081019061187c9190615963565b90506106e08482611f62565b60008060008061189c898989896001611c39565b905060006118b08a878b600001518a61203b565b9050600080831380156118ca5750816118c8846120b6565b115b9b929a50909850909650505050505050565b6060846001600160a01b031663f069052a6118f686612108565b85856040518463ffffffff1660e01b8152600401611916939291906149d2565b600060405180830381865afa158015611933573d6000803e3d6000fd5b505050506040513d6000823e601f3d908101601f191682016040526107819190810190615dfd565b6060846001600160a01b031663f069052a6118f686612140565b6000806119848686868661217b565b905080600003611998576000915050610a46565b6000866001600160a01b0316637ae1cfca6040516020016119f69060208082526023908201527f534b49505f424f52524f57494e475f4645455f464f525f534d414c4c45525f5360408201526249444560e81b606082015260800190565b604051602081830303815290604052805190602001206040518263ffffffff1660e01b8152600401611a2a91815260200190565b602060405180830381865afa158015611a47573d6000803e3d6000fd5b505050506040513d601f19601f82011682018060405250810190611a6b9190615bc9565b90508015611ad3576000611a8188886001611d92565b90506000611a9189896000611d92565b9050858015611a9f57508082105b15611ab1576000945050505050610a46565b85158015611abe57508181105b15611ad0576000945050505050610a46565b50505b6000611ae38888888860006121b7565b905080600003611b0657604051630d5f5aef60e31b815260040160405180910390fd5b6000611b1789896000015188612230565b90506000611b25858361224b565b90506000611b3382856122aa565b90506000611b468c8c600001518b6122b8565b9050611b5282826122d3565b9c9b505050505050505050505050565b611b6a613811565b600080611b7b8585600001516122ec565b92509250506000611b90868660200151612484565b604080516060810182529586526020860194909452928401929092525090949350505050565b6000604051602001611bee906020808252601290820152711254d7d3505492d15517d11254d05093115160721b604082015260600190565b60408051601f198184030181528282528051602091820120908301526001600160a01b038416908201526060015b604051602081830303815290604052805190602001209050919050565b600080611c4a8787878787156121b7565b905080600003611c5e576000915050610781565b6000611c718888886000015188886116ec565b905061055d818361259a565b600080611c8b878786611d92565b90506000611c9c88888888886116ec565b905061055d82826125d9565b6060836001600160a01b031663e7e4148e604051602001611ce8906020808252600b908201526a13505492d15517d31254d560aa1b604082015260600190565b6040516020818303038152906040528051906020012085856040518463ffffffff1660e01b8152600401611d1e939291906149d2565b600060405180830381865afa158015611d3b573d6000803e3d6000fd5b505050506040513d6000823e601f3d908101601f19168201604052610a469190810190615e82565b600080611d748686866001876116ec565b90506000611d868787876000886116ec565b90506111c48183615eb6565b600080611da7846040015185606001516125ef565b90506000611dc08686600001518760400151878661261e565b90506000611dd98787600001518860600151888761261e565b90506111c48183615ede565b60006001600160ff1b03821115611e545760405162461bcd60e51b815260206004820152602860248201527f53616665436173743a2076616c756520646f65736e27742066697420696e2061604482015267371034b73a191a9b60c11b60648201526084015b60405180910390fd5b5090565b600080611e6d846040015185606001516125ef565b90506000611e86868660000151876040015187866126a4565b90506000611dd9878760000151886060015188876126a4565b60008215611ec05781611eb3578351611eb9565b83602001515b9050611131565b81611ecf578360200151610a46565b50509051919050565b6000604051602001611f0e9060208082526010908201526f4c41544553545f41444c5f424c4f434b60801b604082015260600190565b60408051601f198184030181528282528051602091820120908301526001600160a01b0385169082015282151560608201526080015b60405160208183030381529060405280519060200120905092915050565b80516001600160a01b0316611f8a576040516302fde0d760e11b815260040160405180910390fd5b6000826001600160a01b0316637ae1cfca611fa88460000151611bb6565b6040518263ffffffff1660e01b8152600401611fc691815260200190565b602060405180830381865afa158015611fe3573d6000803e3d6000fd5b505050506040513d601f19601f820116820180604052508101906120079190615bc9565b905080156120365781516040516309f8c93760e01b81526001600160a01b039091166004820152602401611e4b565b505050565b6000846001600160a01b031663bd02d0f56120578686866126c1565b6040518263ffffffff1660e01b815260040161207591815260200190565b602060405180830381865afa158015612092573d6000803e3d6000fd5b505050506040513d601f19601f820116820180604052508101906107819190615de4565b600080821215611e545760405162461bcd60e51b815260206004820181905260248201527f53616665436173743a2076616c7565206d75737420626520706f7369746976656044820152606401611e4b565b6000604051602001611bee906020808252601290820152711050d0d3d5539517d3d491115497d31254d560721b604082015260600190565b6000604051602001611bee906020808252601590820152741050d0d3d5539517d413d4d2551253d397d31254d5605a1b604082015260600190565b60008082156121ac576000612191878786611e58565b8551602001519091506121a49082615da6565b915050610781565b61077e868685611d92565b600080836121c95785606001516121cf565b85604001515b905060006121de888884612750565b90506000841561220c57856121fb57866040015160200151612205565b8660200151602001515b9050612226565b8561221c57604087015151612223565b6020870151515b90505b610be08183615da6565b6000836001600160a01b031663bd02d0f561179885856127ee565b600068327cb2734119d3b7a9601e1b831015612269575060006106e3565b68327cb2734119d3b7a9601e1b82036122835750816106e3565b600061229f6122918561282d565b61229a8561282d565b61283e565b9050610a4681612880565b60006106e083836000612891565b6000836001600160a01b031663bd02d0f561179885856128d9565b60006106e0838368327cb2734119d3b7a9601e1b61290f565b600080600080856001600160a01b031663a6ed563e61230a8761291c565b6040518263ffffffff1660e01b815260040161232891815260200190565b602060405180830381865afa158015612345573d6000803e3d6000fd5b505050506040513d601f19601f820116820180604052508101906123699190615de4565b9050806123815760008060009350935093505061247d565b6001866001600160a01b031663bd02d0f561239d846001612953565b6040518263ffffffff1660e01b81526004016123bb91815260200190565b602060405180830381865afa1580156123d8573d6000803e3d6000fd5b505050506040513d601f19601f820116820180604052508101906123fc9190615de4565b876001600160a01b031663bd02d0f5612416856000612953565b6040518263ffffffff1660e01b815260040161243491815260200190565b602060405180830381865afa158015612451573d6000803e3d6000fd5b505050506040513d601f19601f820116820180604052508101906124759190615de4565b935093509350505b9250925092565b6000806000846001600160a01b031663a6ed563e6124a1866129c5565b6040518263ffffffff1660e01b81526004016124bf91815260200190565b602060405180830381865afa1580156124dc573d6000803e3d6000fd5b505050506040513d601f19601f820116820180604052508101906125009190615de4565b905080612514576000809250925050612593565b6001856001600160a01b031663dc97d96261252e846129fb565b6040518263ffffffff1660e01b815260040161254c91815260200190565b602060405180830381865afa158015612569573d6000803e3d6000fd5b505050506040513d601f19601f8201168201806040525081019061258d9190615de4565b92509250505b9250929050565b6000806125af6125a985612a67565b846122aa565b9050600084136125d0576125c281611de5565b6125cb90615ef1565b610a46565b610a4681611de5565b6000816125e584611de5565b6106e09190615eb6565b6000816001600160a01b0316836001600160a01b031614612611576001612614565b60025b60ff169392505050565b600081866001600160a01b031663bd02d0f561263b888888612a7a565b6040518263ffffffff1660e01b815260040161265991815260200190565b602060405180830381865afa158015612676573d6000803e3d6000fd5b505050506040513d601f19601f8201168201806040525081019061269a9190615de4565b61077e9190615f23565b600081866001600160a01b031663bd02d0f561263b888888612af2565b60006040516020016126f5906020808252600e908201526d26a0ac2fa827262fa320a1aa27a960911b604082015260600190565b60408051601f1981840301815282825280516020918201209083015281018590526001600160a01b0384166060820152821515608082015260a0015b6040516020818303038152906040528051906020012090509392505050565b600080612765846040015185606001516125ef565b905080856001600160a01b031663bd02d0f5612785876000015187612b2f565b6040518263ffffffff1660e01b81526004016127a391815260200190565b602060405180830381865afa1580156127c0573d6000803e3d6000fd5b505050506040513d601f19601f820116820180604052508101906127e49190615de4565b6107819190615f23565b6000604051602001611f0e906020808252601990820152782127a92927aba4a723afa2ac2827a722a72a2fa320a1aa27a960391b604082015260600190565b60006106e364e8d4a5100083615f23565b60008260000361286657811561285557600061285f565b670de0b6b3a76400005b90506106e3565b6106e061287b61287585612b9d565b84612c53565b612c5f565b60006106e364e8d4a5100083615da6565b6000836000036128a357506000611131565b81156128c257611eb98468327cb2734119d3b7a9601e1b856001612ca5565b610a468468327cb2734119d3b7a9601e1b85612cf6565b6000604051602001611f0e9060208082526010908201526f2127a92927aba4a723afa320a1aa27a960811b604082015260600190565b6000610a46848484612cf6565b6000604051602001611bee906020808252601190820152701592549515505317d3505492d15517d251607a1b604082015260600190565b6000604051602001612994906020808252601b908201527a5649525455414c5f494e56454e544f52595f464f525f535741505360281b604082015260600190565b60408051601f1981840301815282825280516020918201209083015281018490528215156060820152608001611f44565b6000604051602001611bee9060208082526010908201526f1592549515505317d513d2d15397d25160821b604082015260600190565b6000604051602001612a3e906020808252601f908201527f5649525455414c5f494e56454e544f52595f464f525f504f534954494f4e5300604082015260600190565b60408051601f198184030181528282528051602091820120908301528101839052606001611c1c565b600080821215611e5457816000036106e3565b6000604051602001612aad906020808252600d908201526c13d4115397d2539511549154d5609a1b604082015260600190565b60408051601f198184030181528282528051602091820120908301526001600160a01b038087169183019190915284166060820152821515608082015260a001612731565b6000604051602001612aad906020808252601790820152764f50454e5f494e5445524553545f494e5f544f4b454e5360481b604082015260600190565b6000604051602001612b60906020808252600b908201526a1413d3d317d05353d5539560aa1b604082015260600190565b60408051601f198184030181528282528051602091820120908301526001600160a01b038086169183019190915283166060820152608001611f44565b6000670de0b6b3a7640000821015612bcb57604051633621413760e21b815260048101839052602401611e4b565b6000612be0670de0b6b3a76400008404612da5565b670de0b6b3a764000081029250905082811c670de0b6b3a763ffff198101612c09575050919050565b6706f05b59d3b200005b8015612c4b57670de0b6b3a7640000828002049150671bc16d674ec800008210612c43579283019260019190911c905b60011c612c13565b505050919050565b60006106e08383612e88565b6000680a688906bd8b0000008210612c8d57604051634a4f26f160e01b815260048101839052602401611e4b565b670de0b6b3a7640000604083901b0461113181612f4e565b600080612cb3868686612cf6565b90506001836002811115612cc957612cc9614428565b148015612ce6575060008480612ce157612ce1615f0d565b868809115b156107815761077e600182615ede565b6000808060001985870985870292508281108382030391505080600003612d3057838281612d2657612d26615f0d565b0492505050611131565b808411612d3c57600080fd5b60008486880960026001871981018816978890046003810283188082028403028082028403028082028403028082028403028082028403029081029092039091026000889003889004909101858311909403939093029303949094049190911702949350505050565b6000600160801b8210612dc557608091821c91612dc29082615ede565b90505b600160401b8210612de357604091821c91612de09082615ede565b90505b600160201b8210612e0157602091821c91612dfe9082615ede565b90505b620100008210612e1e57601091821c91612e1b9082615ede565b90505b6101008210612e3a57600891821c91612e379082615ede565b90505b60108210612e5557600491821c91612e529082615ede565b90505b60048210612e7057600291821c91612e6d9082615ede565b90505b60028210612e83576106e3600182615ede565b919050565b60008080600019848609848602925082811083820303915050670de0b6b3a76400008110612ecc5760405163698d9a0160e11b815260048101829052602401611e4b565b600080670de0b6b3a764000086880991506706f05b59d3b1ffff8211905082600003612f0a5780670de0b6b3a76400008504019450505050506106e3565b620400008285030493909111909103600160ee1b02919091177faccb18165bd6fe31ae1cf318dc5b51eee0e1ba569b88cd74c1773b91fac106690201905092915050565b600160bf1b6001603f1b821615612f6e5768016a09e667f3bcc9090260401c5b6001603e1b821615612f89576801306fe0a31b7152df0260401c5b6001603d1b821615612fa4576801172b83c7d517adce0260401c5b6001603c1b821615612fbf5768010b5586cf9890f62a0260401c5b6001603b1b821615612fda576801059b0d31585743ae0260401c5b6001603a1b821615612ff557680102c9a3e778060ee70260401c5b600160391b8216156130105768010163da9fb33356d80260401c5b600160381b82161561302b57680100b1afa5abcbed610260401c5b600160371b8216156130465768010058c86da1c09ea20260401c5b600160361b821615613061576801002c605e2e8cec500260401c5b600160351b82161561307c57680100162f3904051fa10260401c5b600160341b821615613097576801000b175effdc76ba0260401c5b600160331b8216156130b257680100058ba01fb9f96d0260401c5b600160321b8216156130cd5768010002c5cc37da94920260401c5b600160311b8216156130e8576801000162e525ee05470260401c5b600160301b8216156131035768010000b17255775c040260401c5b6001602f1b82161561311e576801000058b91b5bc9ae0260401c5b6001602e1b82161561313957680100002c5c89d5ec6d0260401c5b6001602d1b8216156131545768010000162e43f4f8310260401c5b6001602c1b82161561316f57680100000b1721bcfc9a0260401c5b6001602b1b82161561318a5768010000058b90cf1e6e0260401c5b6001602a1b8216156131a5576801000002c5c863b73f0260401c5b600160291b8216156131c057680100000162e430e5a20260401c5b600160281b8216156131db576801000000b1721835510260401c5b600160271b8216156131f657680100000058b90c0b490260401c5b600160261b8216156132115768010000002c5c8601cc0260401c5b600160251b82161561322c576801000000162e42fff00260401c5b600160241b8216156132475768010000000b17217fbb0260401c5b600160231b821615613262576801000000058b90bfce0260401c5b600160221b82161561327d57680100000002c5c85fe30260401c5b600160211b8216156132985768010000000162e42ff10260401c5b600160201b8216156132b357680100000000b17217f80260401c5b63800000008216156132ce5768010000000058b90bfc0260401c5b63400000008216156132e9576801000000002c5c85fe0260401c5b632000000082161561330457680100000000162e42ff0260401c5b631000000082161561331f576801000000000b17217f0260401c5b630800000082161561333a57680100000000058b90c00260401c5b63040000008216156133555768010000000002c5c8600260401c5b6302000000821615613370576801000000000162e4300260401c5b630100000082161561338b5768010000000000b172180260401c5b628000008216156133a5576801000000000058b90c0260401c5b624000008216156133bf57680100000000002c5c860260401c5b622000008216156133d95768010000000000162e430260401c5b621000008216156133f357680100000000000b17210260401c5b6208000082161561340d5768010000000000058b910260401c5b62040000821615613427576801000000000002c5c80260401c5b6202000082161561344157680100000000000162e40260401c5b6201000082161561345a5761b172600160401b010260401c5b618000821615613472576158b9600160401b010260401c5b61400082161561348a57612c5d600160401b010260401c5b6120008216156134a25761162e600160401b010260401c5b6110008216156134ba57610b17600160401b010260401c5b6108008216156134d25761058c600160401b010260401c5b6104008216156134ea576102c6600160401b010260401c5b61020082161561350257610163600160401b010260401c5b6101008216156135195760b1600160401b010260401c5b608082161561352f576059600160401b010260401c5b604082161561354557602c600160401b010260401c5b602082161561355b576016600160401b010260401c5b601082161561357157600b600160401b010260401c5b6008821615613587576006600160401b010260401c5b600482161561359d576003600160401b010260401c5b60028216156135b3576001600160401b010260401c5b60018216156135c9576001600160401b010260401c5b670de0b6b3a76400000260409190911c60bf031c90565b6040518060c001604052806135f3613628565b81526020016136006138f6565b815260200161360d613811565b81526020016000815260200160008152602001600081525090565b6040805160c081019091526000606082018181526080830182905260a0830191909152819081526020016136a16040518061012001604052806000815260200160008152602001600081526020016000815260200160008152602001600081526020016000815260200160008152602001600081525090565b81526040805160208181019092526000815291015290565b905290565b604080516101808101909152600060608083018281526080840183905260a0840183905260c0840183905260e084018390526101008401839052610120840192909252610140830181905261016083015281905b81526020016136a16040518060c001604052806000815260200160008152602001600081526020016000815260200160008152602001600081525090565b604080516101408101909152600060608083018281526080840183905260a0840183905260c0840183905260e084018390526101008401929092526101208301528152602081016137ee60408051610140810190915280600081526020016000815260200160008152602001600081526020016000815260200160008152602001600081526020016000815260200160008152602001600081525090565b815260408051606081018252600080825260208281018290529282015291015290565b60405180606001604052806000815260200160008152602001600081525090565b60408051608081018252600080825260208201819052918101829052606081019190915290565b6040518060e0016040528061386c613832565b81526020016000815260200160008152602001613887613a3c565b8152602001613894613a5c565b81526020016138a1613811565b8152600060209091015290565b604080516101408101909152600060608083018281526080840183905260a0840183905260c0840183905260e084019290925261010083018190526101208301528190613712565b604080516102c0810190915260006101c082018181526101e08301829052610200830182905261022083018290526102408301829052610260830182905261028083018290526102a0830191909152819081526020016139856040518060c001604052806000815260200160008152602001600081526020016000815260200160008152602001600081525090565b81526020016139b56040518060800160405280600081526020016000815260200160008152602001600081525090565b815260408051606081018252600080825260208281018290529282015291019081526020016139f7604051806040016040528060008152602001600081525090565b81526020016000815260200160008152602001600081526020016000815260200160008152602001600081526020016000815260200160008152602001600081525090565b6040518060400160405280613a4f613a77565b81526020016136b9613a77565b6040805160808101825260008082526020820152908101613a4f5b604080516080810182526000918101828152606082019290925290819081526020016136b9604051806040016040528060008152602001600081525090565b6001600160a01b0381168114613acb57600080fd5b50565b634e487b7160e01b600052604160045260246000fd5b604080519081016001600160401b0381118282101715613b0657613b06613ace565b60405290565b604051606081016001600160401b0381118282101715613b0657613b06613ace565b604051608081016001600160401b0381118282101715613b0657613b06613ace565b60405161012081016001600160401b0381118282101715613b0657613b06613ace565b60405160c081016001600160401b0381118282101715613b0657613b06613ace565b6040516101c081016001600160401b0381118282101715613b0657613b06613ace565b60405161016081016001600160401b0381118282101715613b0657613b06613ace565b60405161014081016001600160401b0381118282101715613b0657613b06613ace565b60405160e081016001600160401b0381118282101715613b0657613b06613ace565b604051601f8201601f191681016001600160401b0381118282101715613c4857613c48613ace565b604052919050565b600060408284031215613c6257600080fd5b613c6a613ae4565b9050813581526020820135602082015292915050565b600060c08284031215613c9257600080fd5b613c9a613b0c565b9050613ca68383613c50565b8152613cb58360408401613c50565b6020820152613cc78360808401613c50565b604082015292915050565b8035612e8381613ab6565b8015158114613acb57600080fd5b6000806000806000806000610180888a031215613d0757600080fd5b8735613d1281613ab6565b96506020880135613d2281613ab6565b955060408801359450613d388960608a01613c80565b93506101208801359250610140880135613d5181613ab6565b9150610160880135613d6281613cdd565b8091505092959891949750929550565b6001600160a01b03169052565b80516001600160a01b03908116835260208083015182169084015260409182015116910152565b805182526020810151602083015260408101516040830152606081015160608301526080810151608083015260a081015160a083015260c081015160c083015260e081015160e08301526101008082015181840152505050565b613e0b828251613d7f565b6020810151613e1d6060840182613da6565b50604001515115156101809190910152565b805182526020810151602083015260408101516040830152606081015160608301526080810151608083015260a081015160a08301525050565b80518252602090810151910152565b8051825260208082015190830152604090810151910152565b613e9c828251613e00565b602081810151805180516101a086810191909152928101516001600160a01b039081166101c08701526040820151166101e08601526060810151610200860152608081015161022086015260a081015161024086015260c081015161026086015260e00151610280850152906020820151613f1b6102a0860182613e2f565b506040828101518051610360870152602080820151610380880152818301516103a08801526060918201516103c08801529084015180516001600160a01b03166103e08801529081015161040087015201516104208501526080820151613f86610440860182613e69565b5060a082015161048085015260c08201516104a085015260e08201516104c08501526101008201516104e085015261012082015161050085015261014082015161052085015261016082015161054085015261018082015161056085015201516105808301526040810151613fff6105a0840182613e78565b506060810151610600830152608081015161062083015260a0015161064090910152565b61066081016106e38284613e91565b60006080828403121561404457600080fd5b61404c613b2e565b9050813561405981613ab6565b8152602082013561406981613ab6565b6020820152604082013561407c81613ab6565b6040820152606082013561408f81613ab6565b606082015292915050565b60008060008060008060006101a0888a0312156140b657600080fd5b87356140c181613ab6565b96506140d08960208a01614032565b95506140df8960a08a01613c50565b94506140ee8960e08a01613c50565b93506140fe896101208a01613c50565b92506101608801359150610180880135613d6281613cdd565b6000806040838503121561412a57600080fd5b823561413581613ab6565b946020939093013593505050565b6101a081016106e38284613e00565b600081518084526020808501945080840160005b8381101561418b5781516001600160a01b031687529582019590820190600101614166565b509495945050505050565b60208152600061012083516101008060208601526141b78386018351613d72565b60208201516141ca610140870182613d72565b5060408201516141de610160870182613d72565b5060608201516141f2610180870182613d72565b5060808201516142066101a0870182613d72565b5060a082015161421a6101c0870182613d72565b5060c082015161422e6101e0870182613d72565b5060e082015183610200870152614249610240870182614152565b9282015186840361011f190161022088015292935061426a90508383614152565b9250602086015191506142806040860183613e2f565b6040860151805115158683015291505b5090949350505050565b600080600080600061012086880312156142b357600080fd5b85356142be81613ab6565b94506142cd8760208801614032565b93506142dc8760a08801613c50565b925060e08601356142ec81613cdd565b91506101008601356142fd81613cdd565b809150509295509295909350565b600080600080610120858703121561432257600080fd5b843561432d81613ab6565b9350602085013561433d81613ab6565b9250604085013561434d81613cdd565b915061435c8660608701613c80565b905092959194509250565b6000806000806000806101c0878903121561438157600080fd5b863561438c81613ab6565b955061439b8860208901614032565b94506143aa8860a08901613c80565b93506101608701356143bb81613ab6565b925061018087013591506101a08701356143d481613ab6565b809150509295509295509295565b600080600080608085870312156143f857600080fd5b843561440381613ab6565b9350602085013561441381613ab6565b93969395505050506040820135916060013590565b634e487b7160e01b600052602160045260246000fd5b6008811061444e5761444e614428565b9052565b6003811061444e5761444e614428565b61446d82825161443e565b602081015161447f6020840182614452565b5060408101516040830152606081015160608301526080810151608083015260a081015160a083015260c081015160c083015260e081015160e08301526101008082015181840152506101208082015181840152505050565b80516101c080845281516001600160a01b0390811691850191909152602082015181166101e08501526040820151166102008401526060810151600091614523610220860183613d72565b60808101519150614538610240860183613d72565b60a0810151915061454d610260860183613d72565b60c0015160e061028086015290506145696102a0850182614152565b9050602083015161457d6020860182614462565b5060408381015180511515610160870152602081015115156101808701529081015115156101a0860152509392505050565b6000602080830181845280855180835260408601915060408160051b870101925083870160005b8281101561460457603f198886030184526145f28583516144d8565b945092850192908501906001016145d6565b5092979650505050505050565b6020815260006106e060208301846144d8565b6000806000806000806000610100888a03121561464057600080fd5b873561464b81613ab6565b9650602088013561465b81613ab6565b955061466a8960408a01613c50565b94506080880135935060a0880135925060c0880135915060e0880135613d6281613cdd565b606081016106e38284613e78565b6000806000806000806000610120888a0312156146b957600080fd5b87356146c481613ab6565b965060208801356146d481613ab6565b955060408801356146e481613ab6565b945060608801356146f481613ab6565b93506080880135925061470a8960a08a01613c50565b91506147198960e08a01613c50565b905092959891949750929550565b6000806040838503121561473a57600080fd5b823561474581613ab6565b9150602083013561475581613ab6565b809150509250929050565b80516001600160a01b03908116835260208083015182169084015260408083015182169084015260609182015116910152565b608081016106e38284614760565b6020808252825182820181905260009190848201906040850190845b818110156147e4576147d0838551613e00565b928401926101a092909201916001016147bd565b50909695505050505050565b6000806000610100848603121561480657600080fd5b833561481181613ab6565b92506148208560208601613c80565b915060e084013561483081613ab6565b809150509250925092565b614846828251613e69565b60208101516120366040840182613e69565b614863828251614760565b60208101516080830152604081015160a0830152606081015161488a60c08401825161483b565b6020015161489c61014084018261483b565b506080810151805115156101c084015260208101516101e084015260408101516148ca61020085018261483b565b50606001516148dd61028084018261483b565b5060a08101516148f1610300840182613e78565b5060c0015115156103609190910152565b61038081016106e38284614858565b6000806000806000610140868803121561492a57600080fd5b853561493581613ab6565b9450602086013561494581613ab6565b93506149548760408801613c80565b925061010086013561496581613cdd565b91506101208601356142fd81613cdd565b60008060008060006101a0868803121561498f57600080fd5b853561499a81613ab6565b94506149a98760208801614032565b93506149b88760a08801613c80565b949793965093946101608101359450610180013592915050565b9283526020830191909152604082015260600190565b60006001600160401b03821115614a0157614a01613ace565b5060051b60200190565b600082601f830112614a1c57600080fd5b81356020614a31614a2c836149e8565b613c20565b82815260c09283028501820192828201919087851115614a5057600080fd5b8387015b85811015614a7357614a668982613c80565b8452928401928101614a54565b5090979650505050505050565b60008060008060808587031215614a9657600080fd5b8435614aa181613ab6565b935060208501356001600160401b03811115614abc57600080fd5b614ac887828801614a0b565b949794965050505060408301359260600135919050565b6020808252825182820181905260009190848201906040850190845b818110156147e457614b0e838551614858565b928401926103809290920191600101614afb565b600080600060608486031215614b3757600080fd5b8335614b4281613ab6565b95602085013595506040909401359392505050565b6020808252825182820181905260009190848201906040850190845b818110156147e457614b86838551614760565b9284019260809290920191600101614b73565b602081526000825161010080602085015260018060a01b03808351166101208601528060208401511661014086015280604084015116610160860152506060820151614be9610180860182613d72565b506080820151614bfd6101a0860182613d72565b5060a082015160e06101c0860152614c19610200860182614152565b905060c0830151925061011f19858203016101e0860152614c3a8184614152565b9250506020850151614c4f6040860182613e2f565b5060408501518051151585830152614290565b600080600080600060a08688031215614c7a57600080fd5b8535614c8581613ab6565b9450602086810135614c9681613ab6565b945060408701356001600160401b0380821115614cb257600080fd5b818901915089601f830112614cc657600080fd5b8135614cd4614a2c826149e8565b81815260059190911b8301840190848101908c831115614cf357600080fd5b938501935b82851015614d1157843582529385019390850190614cf8565b975050506060890135925080831115614d2957600080fd5b5050614d3788828901614a0b565b925050614d4660808701613cd2565b90509295509295909350565b6020808252825182820181905260009190848201906040850190845b818110156147e457614d81838551613e91565b928401926106609290920191600101614d6e565b6000806000806101008587031215614dac57600080fd5b8435614db781613ab6565b9350614dc68660208701614032565b9250614dd58660a08701613c50565b915060e0850135614de581613cdd565b939692955090935050565b614dfb828251613e69565b6020810151614e0d6040840182613e69565b5060408101516120366080840182613e69565b6001600160a01b038881168252878116602083015260408201879052610180820190614e4f6060840188614df0565b856101208401528085166101408401525082151561016083015298975050505050505050565b8051612e8381613ab6565b600060208284031215614e9257600080fd5b604051602081016001600160401b0381118282101715614eb457614eb4613ace565b80604052508091508251614ec781613cdd565b905292915050565b60008183036101a0811215614ee357600080fd5b614eeb613b0c565b91506060811215614efb57600080fd5b614f03613b0c565b8351614f0e81613ab6565b81526020840151614f1e81613ab6565b60208201526040840151614f3181613ab6565b60408201528252610120605f198201811315614f4c57600080fd5b614f54613b50565b9150606084015182526080840151602083015260a0840151604083015260c0840151606083015260e084015160808301526101008085015160a08401528185015160c084015261014085015160e084015261016085015181840152505080602083015250613cc7836101808401614e80565b6000610100808385031215614fda57600080fd5b604051908101906001600160401b0382118183101715614ffc57614ffc613ace565b81604052809250835181526020840151915061501782613ab6565b81602082015261502960408501614e75565b6040820152606084015160608201526080840151608082015260a084015160a082015260c084015160c082015260e084015160e0820152505092915050565b600060c0828403121561507a57600080fd5b615082613b73565b9050815181526020820151602082015260408201516040820152606082015160608201526080820151608082015260a082015160a082015292915050565b6000608082840312156150d257600080fd5b6150da613b2e565b90508151815260208201516020820152604082015160408201526060820151606082015292915050565b60006060828403121561511657600080fd5b61511e613b0c565b9050815161512b81613ab6565b80825250602082015160208201526040820151604082015292915050565b60006040828403121561515b57600080fd5b615163613ae4565b9050815181526020820151602082015292915050565b60006060828403121561518b57600080fd5b615193613b0c565b905081518152602082015160208201526040820151604082015292915050565b60008183036106608112156151c757600080fd5b6151cf613b73565b6151d98585614ecf565b81526101a061040061019f19840112156151f257600080fd5b6151fa613b95565b925061520886828701614fc6565b8352615218866102a08701615068565b602084015261522b8661036087016150c0565b604084015261523e866103e08701615104565b6060840152615251866104408701615149565b608084015261048085015160a08401526104a085015160c08401526104c085015160e08401526104e085015161010084015261050085015161012084015261052085015161014084015261054085015161016084015261056085015161018084015261058085015181840152508160208201526152d2856105a08601615179565b6040820152610600840151606082015261062084015160808201526106409093015160a0840152509092915050565b6001600160a01b03881681526101a0810161531f6020830189614760565b61532c60a0830188613e69565b61533960e0830187613e69565b615347610120830186613e69565b8361016083015282151561018083015298975050505050505050565b60008082840361018081121561537857600080fd5b8351925061016080601f198301121561539057600080fd5b615398613bb8565b91506020850151825260408501516020830152606085015160408301526080850151606083015260a0850151608083015260c085015160a083015260e085015160c08301526101008086015160e08401526101208087015182850152610140915081870151818501525081860151818401525050809150509250929050565b6001600160a01b03929092168252602082015260400190565b60006101a0828403121561544357600080fd5b6106e08383614ecf565b600082601f83011261545e57600080fd5b8151602061546e614a2c836149e8565b82815260059290921b8401810191818101908684111561548d57600080fd5b8286015b848110156116d35780516154a481613ab6565b8352918301918301615491565b6000602082840312156154c357600080fd5b81516001600160401b03808211156154da57600080fd5b81840191506101008083870312156154f157600080fd5b6154f9613b0c565b83518381111561550857600080fd5b8401610120818903121561551b57600080fd5b615523613b50565b61552c82614e75565b815261553a60208301614e75565b602082015261554b60408301614e75565b604082015261555c60608301614e75565b606082015261556d60808301614e75565b608082015261557e60a08301614e75565b60a082015261558f60c08301614e75565b60c082015260e0820151858111156155a657600080fd5b6155b28a82850161544d565b60e08301525083820151858111156155c957600080fd5b6155d58a82850161544d565b82860152508252506155ea8760208601615068565b60208201526155fc8760e08601614e80565b60408201529695505050505050565b6001600160a01b0387811682526101c082019061562b6020840189614760565b61563860a0840188614df0565b808616610160840152846101808401528084166101a084015250979650505050505050565b600080600083850361010081121561567457600080fd5b845193506020850151925060c0603f198201121561569157600080fd5b5061569a613b73565b60408501518152606085015160208201526080850151604082015260a08501516156c381613ab6565b606082015260c0850151608082015260e09094015160a0850152509093909250565b634e487b7160e01b600052603260045260246000fd5b805160088110612e8357600080fd5b805160038110612e8357600080fd5b6000610140828403121561572c57600080fd5b615734613bdb565b905061573f826156fb565b815261574d6020830161570a565b602082015260408201516040820152606082015160608201526080820151608082015260a082015160a082015260c082015160c082015260e082015160e082015261010080830151818301525061012080830151818301525092915050565b6000606082840312156157be57600080fd5b6157c6613b0c565b905081516157d381613cdd565b815260208201516157e381613cdd565b60208201526040820151613cc781613cdd565b60006020828403121561580857600080fd5b81516001600160401b038082111561581f57600080fd5b908301906101c0828603121561583457600080fd5b61583c613b0c565b82518281111561584b57600080fd5b830160e0818803121561585d57600080fd5b615865613bfe565b61586e82614e75565b815261587c60208301614e75565b602082015261588d60408301614e75565b604082015261589e60608301614e75565b60608201526158af60808301614e75565b60808201526158c060a08301614e75565b60a082015260c0820151848111156158d757600080fd5b6158e38982850161544d565b60c0830152508252506158f98660208501615719565b602082015261590c8661016085016157ac565b604082015295945050505050565b634e487b7160e01b600052601160045260246000fd5b6000600182016159425761594261591a565b5060010190565b6001600160a01b0392831681529116602082015260400190565b60006080828403121561597557600080fd5b61597d613b2e565b825161598881613ab6565b8152602083015161599881613ab6565b602082015260408301516159ab81613ab6565b604082015260608301516159be81613ab6565b60608201529392505050565b6001600160a01b038816815261016081016159e86020830189614760565b6159f560a0830188613e69565b8560e0830152846101008301528361012083015282151561014083015298975050505050505050565b600060608284031215615a3057600080fd5b6106e08383615179565b6001600160a01b038881168252610180820190615a5a602084018a614760565b87811660a0840152861660c083015260e08201859052615a7e610100830185613e69565b61055d610140830184613e69565b60008060408385031215615a9f57600080fd5b505080516020909101519092909150565b6001600160a01b038316815260a081016111316020830184614760565b600060808284031215615adf57600080fd5b615ae7613ae4565b9050615af38383615149565b8152615b028360408401615149565b602082015292915050565b60006101008284031215615b2057600080fd5b615b28613ae4565b615b328484615acd565b8152615b418460808501615acd565b60208201529392505050565b6001600160a01b03841681526101608101615b6b6020830185614760565b610a4660a0830184614df0565b60006101408284031215615b8b57600080fd5b615b93613b2e565b8251615b9e81613cdd565b815260208381015190820152615bb78460408501615acd565b60408201526159be8460c08501615acd565b600060208284031215615bdb57600080fd5b81516106e081613cdd565b6001600160a01b03861681526103208101615c046020830187614760565b615c1160a0830186614df0565b615c2061016083018551613d7f565b6020840151615c336101c0840182613da6565b50604093909301515115156102e082015261030001529392505050565b600080600060608486031215615c6557600080fd5b8351925060208401519150604084015190509250925092565b600060208284031215615c9057600080fd5b81516001600160401b0380821115615ca757600080fd5b908301906101008286031215615cbc57600080fd5b615cc4613b0c565b825182811115615cd357600080fd5b830160e08188031215615ce557600080fd5b615ced613bfe565b615cf682614e75565b8152615d0460208301614e75565b6020820152615d1560408301614e75565b6040820152615d2660608301614e75565b6060820152615d3760808301614e75565b608082015260a082015184811115615d4e57600080fd5b615d5a8982850161544d565b60a08301525060c082015184811115615d7257600080fd5b615d7e8982850161544d565b60c083015250825250615d948660208501615068565b602082015261590c8660e08501614e80565b80820281158282048414176106e3576106e361591a565b8181036000831280158383131683831282161715615ddd57615ddd61591a565b5092915050565b600060208284031215615df657600080fd5b5051919050565b60006020808385031215615e1057600080fd5b82516001600160401b03811115615e2657600080fd5b8301601f81018513615e3757600080fd5b8051615e45614a2c826149e8565b81815260059190911b82018301908381019087831115615e6457600080fd5b928401925b828410156111c457835182529284019290840190615e69565b600060208284031215615e9457600080fd5b81516001600160401b03811115615eaa57600080fd5b610a468482850161544d565b8082018281126000831280158216821582161715615ed657615ed661591a565b505092915050565b808201808211156106e3576106e361591a565b6000600160ff1b8201615f0657615f0661591a565b5060000390565b634e487b7160e01b600052601260045260246000fd5b600082615f4057634e487b7160e01b600052601260045260246000fd5b50049056fea2646970667358221220c48c37018ee09e9a750847f282e4ce02957cce1b22ce85201b809bded115a50b64736f6c63430008120033",
  "libraries": {
    "MarketUtils": "0x9046E79D124682C452674F001a7bC5b25EaDFe5d",
    "MarketStoreUtils": "0xC6877b65c58200E0da3C68c151ad48dC4783b134",
    "DepositStoreUtils": "0x5f49B6B788a0d6F8592f9717aF360d78a8e3f387",
    "WithdrawalStoreUtils": "0x8bB337EF1D6e1B8AEab95b24cC267255a3955250",
    "PositionStoreUtils": "0x6054160c4AB083Bd523588Bce7DC0396437d98fE",
    "PositionUtils": "0x987CC851556d209d88323e4A29ddBE2F8a6D7b4C",
    "OrderStoreUtils": "0x6dc2E1F959C6bfa646d7C84f749d2D249d58b1Ef",
    "ReaderUtils": "0x528Caa4A484ca9ecA6498BCc2b4930aab8eE268A",
    "ReaderPricingUtils": "0x0dCB9DFbEa4A7792C905B96D34A42Ea1ab3a6Fc6"
  },
  "devdoc": {
    "kind": "dev",
    "methods": {},
    "version": 1
  },
  "userdoc": {
    "errors": {
      "PRBMathUD60x18__Exp2InputTooBig(uint256)": [
        {
          "notice": "Emitted when the input is greater than 192."
        }
      ],
      "PRBMathUD60x18__LogInputTooSmall(uint256)": [
        {
          "notice": "Emitted when the input is less than 1."
        }
      ],
      "PRBMath__MulDivFixedPointOverflow(uint256)": [
        {
          "notice": "Emitted when the result overflows uint256."
        }
      ]
    },
    "kind": "user",
    "methods": {},
    "version": 1
  },
  "storageLayout": {
    "storage": [],
    "types": null
  }
}